{
  "_format": "hh-sol-artifact-1",
  "contractName": "DelegationManager",
  "sourceName": "contracts/DelegationManager.sol",
  "abi": [
    {
      "anonymous": false,
      "inputs": [
        {
          "indexed": true,
          "internalType": "bytes32",
          "name": "delegationId",
          "type": "bytes32"
        },
        {
          "indexed": true,
          "internalType": "address",
          "name": "enforcer",
          "type": "address"
        }
      ],
      "name": "CaveatEnforced",
      "type": "event"
    },
    {
      "anonymous": false,
      "inputs": [
        {
          "indexed": true,
          "internalType": "bytes32",
          "name": "delegationId",
          "type": "bytes32"
        },
        {
          "indexed": true,
          "internalType": "address",
          "name": "delegator",
          "type": "address"
        },
        {
          "indexed": true,
          "internalType": "address",
          "name": "delegate",
          "type": "address"
        },
        {
          "indexed": false,
          "internalType": "bytes32",
          "name": "authority",
          "type": "bytes32"
        }
      ],
      "name": "DelegationCreated",
      "type": "event"
    },
    {
      "anonymous": false,
      "inputs": [
        {
          "indexed": true,
          "internalType": "bytes32",
          "name": "delegationId",
          "type": "bytes32"
        },
        {
          "indexed": true,
          "internalType": "address",
          "name": "redeemer",
          "type": "address"
        },
        {
          "indexed": false,
          "internalType": "bytes",
          "name": "callData",
          "type": "bytes"
        }
      ],
      "name": "DelegationRedeemed",
      "type": "event"
    },
    {
      "anonymous": false,
      "inputs": [
        {
          "indexed": true,
          "internalType": "bytes32",
          "name": "delegationId",
          "type": "bytes32"
        }
      ],
      "name": "DelegationRevoked",
      "type": "event"
    },
    {
      "inputs": [
        {
          "internalType": "address",
          "name": "delegator",
          "type": "address"
        },
        {
          "internalType": "address",
          "name": "delegate",
          "type": "address"
        },
        {
          "internalType": "bytes32",
          "name": "authority",
          "type": "bytes32"
        },
        {
          "components": [
            {
              "internalType": "address",
              "name": "enforcer",
              "type": "address"
            },
            {
              "internalType": "bytes",
              "name": "terms",
              "type": "bytes"
            },
            {
              "internalType": "bytes",
              "name": "args",
              "type": "bytes"
            }
          ],
          "internalType": "struct IDelegationManager.Caveat[]",
          "name": "caveats",
          "type": "tuple[]"
        },
        {
          "internalType": "bytes32",
          "name": "salt",
          "type": "bytes32"
        },
        {
          "internalType": "uint256",
          "name": "expiresAt",
          "type": "uint256"
        }
      ],
      "name": "createDelegation",
      "outputs": [
        {
          "internalType": "bytes32",
          "name": "",
          "type": "bytes32"
        }
      ],
      "stateMutability": "nonpayable",
      "type": "function"
    },
    {
      "inputs": [
        {
          "internalType": "bytes32",
          "name": "",
          "type": "bytes32"
        },
        {
          "internalType": "uint256",
          "name": "",
          "type": "uint256"
        }
      ],
      "name": "delegationCaveats",
      "outputs": [
        {
          "internalType": "address",
          "name": "enforcer",
          "type": "address"
        },
        {
          "internalType": "bytes",
          "name": "terms",
          "type": "bytes"
        },
        {
          "internalType": "bytes",
          "name": "args",
          "type": "bytes"
        }
      ],
      "stateMutability": "view",
      "type": "function"
    },
    {
      "inputs": [
        {
          "internalType": "bytes32",
          "name": "delegationId",
          "type": "bytes32"
        }
      ],
      "name": "getCaveats",
      "outputs": [
        {
          "components": [
            {
              "internalType": "address",
              "name": "enforcer",
              "type": "address"
            },
            {
              "internalType": "bytes",
              "name": "terms",
              "type": "bytes"
            },
            {
              "internalType": "bytes",
              "name": "args",
              "type": "bytes"
            }
          ],
          "internalType": "struct IDelegationManager.Caveat[]",
          "name": "",
          "type": "tuple[]"
        }
      ],
      "stateMutability": "view",
      "type": "function"
    },
    {
      "inputs": [
        {
          "internalType": "bytes32",
          "name": "delegationId",
          "type": "bytes32"
        }
      ],
      "name": "getDelegation",
      "outputs": [
        {
          "internalType": "address",
          "name": "delegator",
          "type": "address"
        },
        {
          "internalType": "address",
          "name": "delegate",
          "type": "address"
        },
        {
          "internalType": "bytes32",
          "name": "authority",
          "type": "bytes32"
        },
        {
          "internalType": "bytes32",
          "name": "salt",
          "type": "bytes32"
        },
        {
          "internalType": "uint256",
          "name": "createdAt",
          "type": "uint256"
        },
        {
          "internalType": "uint256",
          "name": "expiresAt",
          "type": "uint256"
        },
        {
          "internalType": "bool",
          "name": "revoked",
          "type": "bool"
        }
      ],
      "stateMutability": "view",
      "type": "function"
    },
    {
      "inputs": [
        {
          "internalType": "bytes32",
          "name": "parentId",
          "type": "bytes32"
        }
      ],
      "name": "getSubDelegations",
      "outputs": [
        {
          "internalType": "bytes32[]",
          "name": "",
          "type": "bytes32[]"
        }
      ],
      "stateMutability": "view",
      "type": "function"
    },
    {
      "inputs": [
        {
          "internalType": "bytes32",
          "name": "delegationId",
          "type": "bytes32"
        },
        {
          "internalType": "address",
          "name": "target",
          "type": "address"
        },
        {
          "internalType": "bytes",
          "name": "callData",
          "type": "bytes"
        }
      ],
      "name": "redeemDelegation",
      "outputs": [
        {
          "internalType": "bytes",
          "name": "",
          "type": "bytes"
        }
      ],
      "stateMutability": "payable",
      "type": "function"
    },
    {
      "inputs": [
        {
          "internalType": "bytes32",
          "name": "delegationId",
          "type": "bytes32"
        }
      ],
      "name": "revokeDelegation",
      "outputs": [],
      "stateMutability": "nonpayable",
      "type": "function"
    },
    {
      "inputs": [
        {
          "internalType": "bytes32",
          "name": "",
          "type": "bytes32"
        }
      ],
      "name": "storedDelegations",
      "outputs": [
        {
          "internalType": "address",
          "name": "delegator",
          "type": "address"
        },
        {
          "internalType": "address",
          "name": "delegate",
          "type": "address"
        },
        {
          "internalType": "bytes32",
          "name": "authority",
          "type": "bytes32"
        },
        {
          "internalType": "bytes32",
          "name": "salt",
          "type": "bytes32"
        },
        {
          "internalType": "uint256",
          "name": "createdAt",
          "type": "uint256"
        },
        {
          "internalType": "uint256",
          "name": "expiresAt",
          "type": "uint256"
        },
        {
          "internalType": "bool",
          "name": "revoked",
          "type": "bool"
        }
      ],
      "stateMutability": "view",
      "type": "function"
    },
    {
      "inputs": [
        {
          "internalType": "bytes32",
          "name": "",
          "type": "bytes32"
        },
        {
          "internalType": "uint256",
          "name": "",
          "type": "uint256"
        }
      ],
      "name": "subDelegations",
      "outputs": [
        {
          "internalType": "bytes32",
          "name": "",
          "type": "bytes32"
        }
      ],
      "stateMutability": "view",
      "type": "function"
    },
    {
      "inputs": [],
      "name": "totalDelegations",
      "outputs": [
        {
          "internalType": "uint256",
          "name": "",
          "type": "uint256"
        }
      ],
      "stateMutability": "view",
      "type": "function"
    },
    {
      "inputs": [
        {
          "internalType": "bytes32",
          "name": "delegationId",
          "type": "bytes32"
        },
        {
          "internalType": "bytes",
          "name": "",
          "type": "bytes"
        }
      ],
      "name": "validateCaveats",
      "outputs": [
        {
          "internalType": "bool",
          "name": "",
          "type": "bool"
        }
      ],
      "stateMutability": "view",
      "type": "function"
    }
  ],
  "bytecode": "0x608060405234801561001057600080fd5b50611612806100206000396000f3fe60806040526004361061009c5760003560e01c8063709f8e2711610064578063709f8e271461020257806371ef8fdd14610222578063807047961461028957806399f79b6c146102a9578063b96f2b07146102d6578063c778a3e5146102f857600080fd5b806305b9cb3c146100a157806306e78271146100ca5780632995bd7f146100f757806351b80dfc146101275780635f05e11e146101d3575b600080fd5b3480156100ad57600080fd5b506100b760035481565b6040519081526020015b60405180910390f35b3480156100d657600080fd5b506100ea6100e5366004610e31565b610318565b6040516100c19190610e4a565b34801561010357600080fd5b50610117610112366004610ed7565b61037a565b60405190151581526020016100c1565b34801561013357600080fd5b50610191610142366004610e31565b60009081526020819052604090208054600182015460028301546003840154600485015460058601546006909601546001600160a01b039586169795909416959294919390929160ff90911690565b604080516001600160a01b039889168152979096166020880152948601939093526060850191909152608084015260a0830152151560c082015260e0016100c1565b3480156101df57600080fd5b506101f36101ee366004610f23565b6103c2565b6040516100c193929190610f95565b610215610210366004610fed565b610520565b6040516100c19190611049565b34801561022e57600080fd5b5061019161023d366004610e31565b60006020819052908152604090208054600182015460028301546003840154600485015460058601546006909601546001600160a01b0395861696959094169492939192909160ff1687565b34801561029557600080fd5b506100b76102a436600461105c565b6107c4565b3480156102b557600080fd5b506102c96102c4366004610e31565b610a28565b6040516100c19190611112565b3480156102e257600080fd5b506102f66102f1366004610e31565b610bd4565b005b34801561030457600080fd5b506100b7610313366004610f23565b610cc0565b60008181526002602090815260409182902080548351818402810184019094528084526060939283018282801561036e57602002820191906000526020600020905b81548152602001906001019080831161035a575b50505050509050919050565b6000838152602081905260408120600681015460ff161561039f5760009150506103bb565b80600501544211156103b55760009150506103bb565b60019150505b9392505050565b600160205281600052604060002081815481106103de57600080fd5b6000918252602090912060039091020180546001820180546001600160a01b03909216945091925061040f906111b0565b80601f016020809104026020016040519081016040528092919081815260200182805461043b906111b0565b80156104885780601f1061045d57610100808354040283529160200191610488565b820191906000526020600020905b81548152906001019060200180831161046b57829003601f168201915b50505050509080600201805461049d906111b0565b80601f01602080910402602001604051908101604052809291908181526020018280546104c9906111b0565b80156105165780601f106104eb57610100808354040283529160200191610516565b820191906000526020600020905b8154815290600101906020018083116104f957829003601f168201915b5050505050905083565b60008481526020819052604090208054606091906001600160a01b031661058e5760405162461bcd60e51b815260206004820152601960248201527f44656c65676174696f6e20646f6573206e6f742065786973740000000000000060448201526064015b60405180910390fd5b600681015460ff16156105d85760405162461bcd60e51b815260206004820152601260248201527111195b1959d85d1a5bdb881c995d9bdad95960721b6044820152606401610585565b80600501544211156106215760405162461bcd60e51b815260206004820152601260248201527111195b1959d85d1a5bdb88195e1c1a5c995960721b6044820152606401610585565b60018101546001600160a01b0316331461067d5760405162461bcd60e51b815260206004820152601860248201527f4f6e6c792064656c65676174652063616e2072656465656d00000000000000006044820152606401610585565b6000868152600160205260408120905b81548110156106c9576106c1888383815481106106ac576106ac6111ea565b90600052602060002090600302018888610cf1565b60010161068d565b50600080876001600160a01b03163488886040516106e8929190611200565b60006040518083038185875af1925050503d8060008114610725576040519150601f19603f3d011682016040523d82523d6000602084013e61072a565b606091505b5091509150816107745760405162461bcd60e51b815260206004820152601560248201527411195b1959d85d19590818d85b1b0819985a5b1959605a1b6044820152606401610585565b336001600160a01b0316897fdf63203e8a5d87a3709ea4a4ed601bcc2c337dcbc7f1bb632757733018b3737889896040516107b0929190611239565b60405180910390a398975050505050505050565b6040516bffffffffffffffffffffffff19606089811b8216602084015288901b16603482015260488101839052466068820152600090819060880160408051601f1981840301815291815281516020928301206000818152928390529120549091506001600160a01b03161561087c5760405162461bcd60e51b815260206004820152601960248201527f44656c65676174696f6e20616c726561647920657869737473000000000000006044820152606401610585565b6040805160e0810182526001600160a01b03808c1682528a811660208084019182528385018c8152606085018a8152426080870190815260a087018b8152600060c089018181528b825295819052988920975188549088166001600160a01b03199182161789559551600189018054919098169616959095179095559051600286015551600385015591516004840155516005830155516006909101805491151560ff199092169190911790555b85811015610990576000828152600160205260409020878783818110610952576109526111ea565b90506020028101906109649190611255565b81546001810183556000928352602090922090916003020161098682826113e4565b505060010161092a565b5086156109b9576000878152600260209081526040822080546001810182559083529120018190555b600380549060006109c9836114f6565b9190505550876001600160a01b0316896001600160a01b0316827f672b7284a4f3f07da4476803233243973b00aec2fefefb7e9dca2e74f0a0aed58a604051610a1491815260200190565b60405180910390a498975050505050505050565b606060016000838152602001908152602001600020805480602002602001604051908101604052809291908181526020016000905b82821015610bc957600084815260209081902060408051606081019091526003850290910180546001600160a01b031682526001810180549293919291840191610aa6906111b0565b80601f0160208091040260200160405190810160405280929190818152602001828054610ad2906111b0565b8015610b1f5780601f10610af457610100808354040283529160200191610b1f565b820191906000526020600020905b815481529060010190602001808311610b0257829003601f168201915b50505050508152602001600282018054610b38906111b0565b80601f0160208091040260200160405190810160405280929190818152602001828054610b64906111b0565b8015610bb15780601f10610b8657610100808354040283529160200191610bb1565b820191906000526020600020905b815481529060010190602001808311610b9457829003601f168201915b50505050508152505081526020019060010190610a5d565b505050509050919050565b600081815260208190526040902080546001600160a01b03163314610c3b5760405162461bcd60e51b815260206004820152601960248201527f4f6e6c792064656c656761746f722063616e207265766f6b65000000000000006044820152606401610585565b600681015460ff1615610c825760405162461bcd60e51b815260206004820152600f60248201526e105b1c9958591e481c995d9bdad959608a1b6044820152606401610585565b60068101805460ff1916600117905560405182907f6eb24ce38eb0f7d1e3b4291d5543c7286f02be3daed061b0f7eb6491213deb2190600090a25050565b60026020528160005260406000208181548110610cdc57600080fd5b90600052602060002001600091509150505481565b82546001600160a01b031615610e2b5782546040516000916001600160a01b031690610d2a90879060018801908790879060240161151d565b60408051601f198184030181529181526020820180516001600160e01b031663715cae4960e11b17905251610d5f91906115ca565b600060405180830381855afa9150503d8060008114610d9a576040519150601f19603f3d011682016040523d82523d6000602084013e610d9f565b606091505b5050905080610df05760405162461bcd60e51b815260206004820152601960248201527f43617665617420656e666f7263656d656e74206661696c6564000000000000006044820152606401610585565b83546040516001600160a01b039091169086907fa994c91374027c0f9a5bb6f8a7fccab23008f4f328d4f8b832073e02a1dd8f5590600090a3505b50505050565b600060208284031215610e4357600080fd5b5035919050565b6020808252825182820181905260009190848201906040850190845b81811015610e8257835183529284019291840191600101610e66565b50909695505050505050565b60008083601f840112610ea057600080fd5b50813567ffffffffffffffff811115610eb857600080fd5b602083019150836020828501011115610ed057600080fd5b9250929050565b600080600060408486031215610eec57600080fd5b83359250602084013567ffffffffffffffff811115610f0a57600080fd5b610f1686828701610e8e565b9497909650939450505050565b60008060408385031215610f3657600080fd5b50508035926020909101359150565b60005b83811015610f60578181015183820152602001610f48565b50506000910152565b60008151808452610f81816020860160208601610f45565b601f01601f19169290920160200192915050565b6001600160a01b0384168152606060208201819052600090610fb990830185610f69565b8281036040840152610fcb8185610f69565b9695505050505050565b6001600160a01b0381168114610fea57600080fd5b50565b6000806000806060858703121561100357600080fd5b84359350602085013561101581610fd5565b9250604085013567ffffffffffffffff81111561103157600080fd5b61103d87828801610e8e565b95989497509550505050565b6020815260006103bb6020830184610f69565b600080600080600080600060c0888a03121561107757600080fd5b873561108281610fd5565b9650602088013561109281610fd5565b955060408801359450606088013567ffffffffffffffff808211156110b657600080fd5b818a0191508a601f8301126110ca57600080fd5b8135818111156110d957600080fd5b8b60208260051b85010111156110ee57600080fd5b989b979a50959860209190910197966080820135965060a090910135945092505050565b600060208083018184528085518083526040925060408601915060408160051b87010184880160005b838110156111a257888303603f19018552815180516001600160a01b031684528781015160608986018190529061117482870182610f69565b9150508782015191508481038886015261118e8183610f69565b96890196945050509086019060010161113b565b509098975050505050505050565b600181811c908216806111c457607f821691505b6020821081036111e457634e487b7160e01b600052602260045260246000fd5b50919050565b634e487b7160e01b600052603260045260246000fd5b8183823760009101908152919050565b81835281816020850137506000828201602090810191909152601f909101601f19169091010190565b60208152600061124d602083018486611210565b949350505050565b60008235605e1983360301811261126b57600080fd5b9190910192915050565b6000808335601e1984360301811261128c57600080fd5b83018035915067ffffffffffffffff8211156112a757600080fd5b602001915036819003821315610ed057600080fd5b634e487b7160e01b600052604160045260246000fd5b601f82111561131e576000816000526020600020601f850160051c810160208610156112fb5750805b601f850160051c820191505b8181101561131a57828155600101611307565b5050505b505050565b67ffffffffffffffff83111561133b5761133b6112bc565b61134f8361134983546111b0565b836112d2565b6000601f841160018114611383576000851561136b5750838201355b600019600387901b1c1916600186901b1783556113dd565b600083815260209020601f19861690835b828110156113b45786850135825560209485019460019092019101611394565b50868210156113d15760001960f88860031b161c19848701351681555b505060018560011b0183555b5050505050565b81356113ef81610fd5565b81546001600160a01b0319166001600160a01b03919091161781556001818101602061141d85820186611275565b67ffffffffffffffff811115611435576114356112bc565b6114498161144386546111b0565b866112d2565b6000601f82116001811461147d57600083156114655750838201355b600019600385901b1c1916600184901b1786556114d4565b600086815260209020601f19841690835b828110156114ab578685013582559387019390890190870161148e565b50848210156114c85760001960f88660031b161c19848701351681555b505060018360011b0186555b505050505050506114e86040830183611275565b610e2b818360028601611323565b60006001820161151657634e487b7160e01b600052601160045260246000fd5b5060010190565b848152600060206060602084015260008654611538816111b0565b806060870152608060018084166000811461155a5760018114611576576115a6565b60ff19851660808a0152608084151560051b8a010195506115a6565b8b600052602060002060005b8581101561159d5781548b8201860152908301908801611582565b8a016080019650505b505050505083810360408501526115be818688611210565b98975050505050505050565b6000825161126b818460208701610f4556fea264697066735822122084732cbfbddbddc5f1a2be4dbb3e59033013d901b91f737c54ecc07c4230b3f064736f6c63430008180033",
  "linkReferences": {},
  "deployedLinkReferences": {}
}