{
  "_format": "hh-sol-artifact-1",
  "contractName": "AgentBudgetEnforcer",
  "sourceName": "contracts/ZKVerifier.sol",
  "abi": [
    {
      "anonymous": false,
      "inputs": [
        {
          "indexed": true,
          "internalType": "bytes32",
          "name": "delegationId",
          "type": "bytes32"
        },
        {
          "indexed": false,
          "internalType": "uint256",
          "name": "spent",
          "type": "uint256"
        },
        {
          "indexed": false,
          "internalType": "uint256",
          "name": "limit",
          "type": "uint256"
        }
      ],
      "name": "BudgetEnforced",
      "type": "event"
    },
    {
      "anonymous": false,
      "inputs": [
        {
          "indexed": true,
          "internalType": "bytes32",
          "name": "delegationId",
          "type": "bytes32"
        },
        {
          "indexed": false,
          "internalType": "uint256",
          "name": "day",
          "type": "uint256"
        }
      ],
      "name": "BudgetReset",
      "type": "event"
    },
    {
      "inputs": [
        {
          "internalType": "bytes32",
          "name": "",
          "type": "bytes32"
        }
      ],
      "name": "dailyLimit",
      "outputs": [
        {
          "internalType": "uint256",
          "name": "",
          "type": "uint256"
        }
      ],
      "stateMutability": "view",
      "type": "function"
    },
    {
      "inputs": [
        {
          "internalType": "bytes32",
          "name": "",
          "type": "bytes32"
        }
      ],
      "name": "dailySpending",
      "outputs": [
        {
          "internalType": "uint256",
          "name": "",
          "type": "uint256"
        }
      ],
      "stateMutability": "view",
      "type": "function"
    },
    {
      "inputs": [
        {
          "internalType": "bytes32",
          "name": "delegationId",
          "type": "bytes32"
        },
        {
          "internalType": "bytes",
          "name": "terms",
          "type": "bytes"
        },
        {
          "internalType": "bytes",
          "name": "callData",
          "type": "bytes"
        }
      ],
      "name": "enforceCaveat",
      "outputs": [
        {
          "internalType": "bool",
          "name": "",
          "type": "bool"
        }
      ],
      "stateMutability": "nonpayable",
      "type": "function"
    },
    {
      "inputs": [
        {
          "internalType": "bytes32",
          "name": "delegationId",
          "type": "bytes32"
        }
      ],
      "name": "getRemainingBudget",
      "outputs": [
        {
          "internalType": "uint256",
          "name": "",
          "type": "uint256"
        }
      ],
      "stateMutability": "view",
      "type": "function"
    },
    {
      "inputs": [
        {
          "internalType": "bytes32",
          "name": "",
          "type": "bytes32"
        }
      ],
      "name": "lastResetDay",
      "outputs": [
        {
          "internalType": "uint256",
          "name": "",
          "type": "uint256"
        }
      ],
      "stateMutability": "view",
      "type": "function"
    }
  ],
  "bytecode": "0x608060405234801561001057600080fd5b506104ac806100206000396000f3fe608060405234801561001057600080fd5b50600436106100575760003560e01c80636b23d3a11461005c5780637428b7bf1461008f57806387f98a3d146100af578063decb8763146100cf578063e2b95c92146100e2575b600080fd5b61007c61006a3660046102f4565b60016020526000908152604090205481565b6040519081526020015b60405180910390f35b61007c61009d3660046102f4565b60006020819052908152604090205481565b61007c6100bd3660046102f4565b60026020526000908152604090205481565b61007c6100dd3660046102f4565b610105565b6100f56100f0366004610356565b610142565b6040519015158152602001610086565b60008181526002602090815260408083205491839052822054808211156101385761013081836103e6565b949350505050565b5060009392505050565b600080610151858701876102f4565b9050600061016262015180426103f9565b600089815260016020526040902054909150808211156101cc57600089815260208181526040808320839055600182529182902084905590518381528a917f179a4e334b598467108e6b6b9018f9ac7fc236838da660e2cb43d2529d3f9362910160405180910390a25b60006101d887876102c2565b60008b81526020819052604090205490915084906101f790839061041b565b111561023b5760405162461bcd60e51b815260206004820152600f60248201526e109d5919d95d08195e18d959591959608a1b604482015260640160405180910390fd5b60008a8152602081905260408120805483929061025990849061041b565b909155505060008a8152600260209081526040808320879055828252918290205482519081529081018690528b917fc148a505e2dfcc2bf5256d72bd0a6e0b3d94bd72ee6493e789e9888996ed2734910160405180910390a25060019998505050505050505050565b6000604482106102ea576102da60446024848661042e565b6102e391610458565b90506102ee565b5060005b92915050565b60006020828403121561030657600080fd5b5035919050565b60008083601f84011261031f57600080fd5b50813567ffffffffffffffff81111561033757600080fd5b60208301915083602082850101111561034f57600080fd5b9250929050565b60008060008060006060868803121561036e57600080fd5b85359450602086013567ffffffffffffffff8082111561038d57600080fd5b61039989838a0161030d565b909650945060408801359150808211156103b257600080fd5b506103bf8882890161030d565b969995985093965092949392505050565b634e487b7160e01b600052601160045260246000fd5b818103818111156102ee576102ee6103d0565b60008261041657634e487b7160e01b600052601260045260246000fd5b500490565b808201808211156102ee576102ee6103d0565b6000808585111561043e57600080fd5b8386111561044b57600080fd5b5050820193919092039150565b803560208310156102ee57600019602084900360031b1b169291505056fea2646970667358221220a08996e2b543d1e038e2fd3f10ff6a644b118ccd9c81ad1ee7ef663b4064aad564736f6c63430008180033",
  "linkReferences": {},
  "deployedLinkReferences": {}
}