{
  "_format": "hh-sol-artifact-1",
  "contractName": "ZKGatedDelegationEnforcer",
  "sourceName": "contracts/ZKVerifier.sol",
  "abi": [
    {
      "inputs": [
        {
          "internalType": "address",
          "name": "_zkVerifier",
          "type": "address"
        }
      ],
      "stateMutability": "nonpayable",
      "type": "constructor"
    },
    {
      "anonymous": false,
      "inputs": [
        {
          "indexed": true,
          "internalType": "bytes32",
          "name": "delegationId",
          "type": "bytes32"
        }
      ],
      "name": "ZKProofRequired",
      "type": "event"
    },
    {
      "anonymous": false,
      "inputs": [
        {
          "indexed": true,
          "internalType": "bytes32",
          "name": "delegationId",
          "type": "bytes32"
        },
        {
          "indexed": false,
          "internalType": "bytes32",
          "name": "nullifier",
          "type": "bytes32"
        }
      ],
      "name": "ZKProofVerified",
      "type": "event"
    },
    {
      "inputs": [
        {
          "internalType": "bytes32",
          "name": "",
          "type": "bytes32"
        }
      ],
      "name": "delegationCommitment",
      "outputs": [
        {
          "internalType": "bytes32",
          "name": "",
          "type": "bytes32"
        }
      ],
      "stateMutability": "view",
      "type": "function"
    },
    {
      "inputs": [
        {
          "internalType": "bytes32",
          "name": "delegationId",
          "type": "bytes32"
        },
        {
          "internalType": "bytes",
          "name": "terms",
          "type": "bytes"
        },
        {
          "internalType": "bytes",
          "name": "callData",
          "type": "bytes"
        }
      ],
      "name": "enforceCaveat",
      "outputs": [
        {
          "internalType": "bool",
          "name": "",
          "type": "bool"
        }
      ],
      "stateMutability": "nonpayable",
      "type": "function"
    },
    {
      "inputs": [
        {
          "internalType": "bytes32",
          "name": "delegationId",
          "type": "bytes32"
        }
      ],
      "name": "hasZKProof",
      "outputs": [
        {
          "internalType": "bool",
          "name": "",
          "type": "bool"
        }
      ],
      "stateMutability": "view",
      "type": "function"
    },
    {
      "inputs": [
        {
          "internalType": "bytes32",
          "name": "",
          "type": "bytes32"
        }
      ],
      "name": "zkProofProvided",
      "outputs": [
        {
          "internalType": "bool",
          "name": "",
          "type": "bool"
        }
      ],
      "stateMutability": "view",
      "type": "function"
    },
    {
      "inputs": [],
      "name": "zkVerifier",
      "outputs": [
        {
          "internalType": "contract IZKVerifier",
          "name": "",
          "type": "address"
        }
      ],
      "stateMutability": "view",
      "type": "function"
    }
  ],
  "bytecode": "0x608060405234801561001057600080fd5b5060405161068638038061068683398101604081905261002f91610054565b600080546001600160a01b0319166001600160a01b0392909216919091179055610084565b60006020828403121561006657600080fd5b81516001600160a01b038116811461007d57600080fd5b9392505050565b6105f3806100936000396000f3fe608060405234801561001057600080fd5b50600436106100575760003560e01c80630c6c33ad1461005c5780632a6345c314610094578063b8db5b25146100c2578063d6df096d146100e5578063e2b95c9214610110575b600080fd5b61007f61006a366004610409565b60026020526000908152604090205460ff1681565b60405190151581526020015b60405180910390f35b6100b46100a2366004610409565b60016020526000908152604090205481565b60405190815260200161008b565b61007f6100d0366004610409565b60009081526002602052604090205460ff1690565b6000546100f8906001600160a01b031681565b6040516001600160a01b03909116815260200161008b565b61007f61011e36600461046b565b60008061012d85870187610409565b6000546040516342ffdb9960e01b8152600481018390529192506001600160a01b0316906342ffdb9990602401602060405180830381865afa158015610177573d6000803e3d6000fd5b505050506040513d601f19601f8201168201806040525081019061019b91906104e5565b6101e15760405162461bcd60e51b8152602060048201526012602482015271125b9d985b1a590818dbdb5b5a5d1b595b9d60721b60448201526064015b60405180910390fd5b366000366000806101f28989610337565b60008054604051631ea6389560e11b8152969b509499509297509095509350916001600160a01b0390911690633d4c712a90610238908a9088908890889060040161050e565b6020604051808303816000875af1158015610257573d6000803e3d6000fd5b505050506040513d601f19601f8201168201806040525081019061027b91906104e5565b9050806102ca5760405162461bcd60e51b815260206004820152601c60248201527f5a4b2070726f6f6620766572696669636174696f6e206661696c65640000000060448201526064016101d8565b60008d81526001602081815260408084208b90556002825292839020805460ff191690921790915590518381528e917f5a59c235c2df348499824356fd977c984f31a49ba030c8708c5ea00090e97b67910160405180910390a25060019c9b505050505050505050505050565b3660008181808560608110156103835760405162461bcd60e51b8152602060048201526011602482015270496e76616c69642063616c6c206461746160781b60448201526064016101d8565b6000888861039260208561054e565b61039e92859290610575565b6103a79161059f565b905060006103b660408461054e565b90503660008b838c6103c960208961054e565b926103d693929190610575565b915091503660008d8d60009087926103f093929190610575565b909f909e50939c50919a50939850909650505050505050565b60006020828403121561041b57600080fd5b5035919050565b60008083601f84011261043457600080fd5b50813567ffffffffffffffff81111561044c57600080fd5b60208301915083602082850101111561046457600080fd5b9250929050565b60008060008060006060868803121561048357600080fd5b85359450602086013567ffffffffffffffff808211156104a257600080fd5b6104ae89838a01610422565b909650945060408801359150808211156104c757600080fd5b506104d488828901610422565b969995985093965092949392505050565b6000602082840312156104f757600080fd5b8151801515811461050757600080fd5b9392505050565b848152606060208201528260608201528284608083013760006080848301015260006080601f19601f860116830101905082604083015295945050505050565b8181038181111561056f57634e487b7160e01b600052601160045260246000fd5b92915050565b6000808585111561058557600080fd5b8386111561059257600080fd5b5050820193919092039150565b8035602083101561056f57600019602084900360031b1b169291505056fea26469706673582212209f222f806d8c92da3b624e473798573e6e04ae635be04871c7ff03aa934cae7f64736f6c63430008180033",
  "linkReferences": {},
  "deployedLinkReferences": {}
}