{
  "_format": "hh-sol-artifact-1",
  "contractName": "ZKMembershipVerifier",
  "sourceName": "contracts/ZKVerifier.sol",
  "abi": [
    {
      "inputs": [],
      "stateMutability": "nonpayable",
      "type": "constructor"
    },
    {
      "anonymous": false,
      "inputs": [
        {
          "indexed": true,
          "internalType": "bytes32",
          "name": "commitment",
          "type": "bytes32"
        }
      ],
      "name": "CommitmentRegistered",
      "type": "event"
    },
    {
      "anonymous": false,
      "inputs": [
        {
          "indexed": true,
          "internalType": "bytes32",
          "name": "nullifier",
          "type": "bytes32"
        }
      ],
      "name": "NullifierUsed",
      "type": "event"
    },
    {
      "anonymous": false,
      "inputs": [
        {
          "indexed": true,
          "internalType": "bytes32",
          "name": "commitment",
          "type": "bytes32"
        },
        {
          "indexed": true,
          "internalType": "bytes32",
          "name": "nullifier",
          "type": "bytes32"
        },
        {
          "indexed": true,
          "internalType": "address",
          "name": "verifier",
          "type": "address"
        }
      ],
      "name": "ProofVerified",
      "type": "event"
    },
    {
      "inputs": [
        {
          "internalType": "bytes32",
          "name": "commitment",
          "type": "bytes32"
        }
      ],
      "name": "isCommitmentValid",
      "outputs": [
        {
          "internalType": "bool",
          "name": "",
          "type": "bool"
        }
      ],
      "stateMutability": "view",
      "type": "function"
    },
    {
      "inputs": [
        {
          "internalType": "bytes32",
          "name": "nullifier",
          "type": "bytes32"
        }
      ],
      "name": "isNullifierUsed",
      "outputs": [
        {
          "internalType": "bool",
          "name": "",
          "type": "bool"
        }
      ],
      "stateMutability": "view",
      "type": "function"
    },
    {
      "inputs": [
        {
          "internalType": "bytes32",
          "name": "commitment",
          "type": "bytes32"
        }
      ],
      "name": "registerCommitment",
      "outputs": [],
      "stateMutability": "nonpayable",
      "type": "function"
    },
    {
      "inputs": [
        {
          "internalType": "bytes32",
          "name": "",
          "type": "bytes32"
        }
      ],
      "name": "usedNullifiers",
      "outputs": [
        {
          "internalType": "bool",
          "name": "",
          "type": "bool"
        }
      ],
      "stateMutability": "view",
      "type": "function"
    },
    {
      "inputs": [
        {
          "internalType": "bytes32",
          "name": "",
          "type": "bytes32"
        }
      ],
      "name": "validCommitments",
      "outputs": [
        {
          "internalType": "bool",
          "name": "",
          "type": "bool"
        }
      ],
      "stateMutability": "view",
      "type": "function"
    },
    {
      "inputs": [
        {
          "internalType": "bytes32",
          "name": "commitment",
          "type": "bytes32"
        },
        {
          "internalType": "bytes",
          "name": "proof",
          "type": "bytes"
        },
        {
          "internalType": "bytes32",
          "name": "nullifier",
          "type": "bytes32"
        }
      ],
      "name": "verifyMembership",
      "outputs": [
        {
          "internalType": "bool",
          "name": "",
          "type": "bool"
        }
      ],
      "stateMutability": "nonpayable",
      "type": "function"
    }
  ],
  "bytecode": "0x608060405234801561001057600080fd5b506001600080604051602001610049907f6d656d626572736869705f747265655f726f6f745f6578616d706c65000000008152601c0190565b60408051808303601f19018152918152815160209283012083529082019290925201600020805460ff191691151591909117905561049c8061008c6000396000f3fe608060405234801561001057600080fd5b50600436106100625760003560e01c80631eafbc0514610067578063206137aa1461009e57806322dc7b4c146100c15780633d4c712a146100e457806342ffdb99146100f7578063d9e314d81461011a575b600080fd5b61008a6100753660046103bb565b60006020819052908152604090205460ff1681565b604051901515815260200160405180910390f35b61008a6100ac3660046103bb565b60016020526000908152604090205460ff1681565b61008a6100cf3660046103bb565b60009081526001602052604090205460ff1690565b61008a6100f23660046103d4565b61012f565b61008a6101053660046103bb565b60009081526020819052604090205460ff1690565b61012d6101283660046103bb565b6102f9565b005b60008481526020819052604081205460ff166101875760405162461bcd60e51b8152602060048201526012602482015271125b9d985b1a590818dbdb5b5a5d1b595b9d60721b60448201526064015b60405180910390fd5b60008281526001602052604090205460ff16156101df5760405162461bcd60e51b8152602060048201526016602482015275139d5b1b1a599a595c88185b1c9958591e481d5cd95960521b604482015260640161017e565b8261021c5760405162461bcd60e51b815260206004820152600d60248201526c24b73b30b634b210383937b7b360991b604482015260640161017e565b600061022a8686868661033c565b9050806102795760405162461bcd60e51b815260206004820152601960248201527f50726f6f6620766572696669636174696f6e206661696c656400000000000000604482015260640161017e565b6000838152600160208190526040808320805460ff1916909217909155513391859189917f7621416042544b5de780d93a4cc03cb6e5445dfad95bd62f7bd7280018146ded91a460405183907f4aac17bcf1974f8ba294b28aaf75fe627cdcc9a03ac55bda3bfe158ab067383c90600090a260019150505b949350505050565b600081815260208190526040808220805460ff191660011790555182917fa403f1b6498d306c2c2e7466a34f587ab745bc1233aaf90ecb33fd40da84e1fa91a250565b600080858360405160200161036f92919091825260208201526a3b30b634b22fb83937b7b360a91b6040820152604b0190565b60408051601f19818403018152919052805160209182012091508411156103af57600085856040516103a2929190610456565b50600192506102f1915050565b50600095945050505050565b6000602082840312156103cd57600080fd5b5035919050565b600080600080606085870312156103ea57600080fd5b84359350602085013567ffffffffffffffff8082111561040957600080fd5b818701915087601f83011261041d57600080fd5b81358181111561042c57600080fd5b88602082850101111561043e57600080fd5b95986020929092019750949560400135945092505050565b818382376000910190815291905056fea26469706673582212205ff35f880ac1edb0d3c358f0fe46d1803c166a054148e74282815145ea2c10bd64736f6c63430008180033",
  "linkReferences": {},
  "deployedLinkReferences": {}
}