{"contracts/CaveatEnforcers.sol":{"TimeBoundEnforcer":{"abi":[{"anonymous":false,"inputs":[{"indexed":true,"internalType":"bytes32","name":"delegationId","type":"bytes32"},{"indexed":false,"internalType":"uint256","name":"startTime","type":"uint256"},{"indexed":false,"internalType":"uint256","name":"endTime","type":"uint256"}],"name":"TimeBoundEnforced","type":"event"},{"inputs":[{"internalType":"bytes32","name":"delegationId","type":"bytes32"},{"internalType":"bytes","name":"terms","type":"bytes"},{"internalType":"bytes","name":"callData","type":"bytes"}],"name":"enforceCaveat","outputs":[{"internalType":"bool","name":"","type":"bool"}],"stateMutability":"nonpayable","type":"function"},{"inputs":[{"internalType":"uint256","name":"startTime","type":"uint256"},{"internalType":"uint256","name":"endTime","type":"uint256"}],"name":"isTimeValid","outputs":[{"internalType":"bool","name":"","type":"bool"}],"stateMutability":"view","type":"function"}],"evm":{"bytecode":{"linkReferences":{},"object":"608060405234801561001057600080fd5b5061025c806100206000396000f3fe608060405234801561001057600080fd5b50600436106100365760003560e01c806320c83bdf1461003b578063e2b95c9214610062575b600080fd5b61004e610049366004610141565b610075565b604051901515815260200160405180910390f35b61004e6100703660046101ac565b61008e565b60008242101580156100875750814211155b9392505050565b6000808061009e86880188610141565b915091508142101580156100b25750804211155b6100f85760405162461bcd60e51b81526020600482015260136024820152724f7574736964652074696d652077696e646f7760681b604482015260640160405180910390fd5b604080518381526020810183905289917f0a693ad58d5ca64a98f194527f3ce432034611ef7d35c5a5306f5e810dff1a88910160405180910390a2506001979650505050505050565b6000806040838503121561015457600080fd5b50508035926020909101359150565b60008083601f84011261017557600080fd5b50813567ffffffffffffffff81111561018d57600080fd5b6020830191508360208285010111156101a557600080fd5b9250929050565b6000806000806000606086880312156101c457600080fd5b85359450602086013567ffffffffffffffff808211156101e357600080fd5b6101ef89838a01610163565b9096509450604088013591508082111561020857600080fd5b5061021588828901610163565b96999598509396509294939250505056fea2646970667358221220e092295a17e382e1941303f2d7e9bb1abe51bc748f9fbfee6bc6a8596f0b9e1a64736f6c63430008180033","opcodes":"PUSH1 0x80 PUSH1 0x40 MSTORE CALLVALUE DUP1 ISZERO PUSH2 0x10 JUMPI PUSH1 0x0 DUP1 REVERT JUMPDEST POP PUSH2 0x25C DUP1 PUSH2 0x20 PUSH1 0x0 CODECOPY PUSH1 0x0 RETURN INVALID PUSH1 0x80 PUSH1 0x40 MSTORE CALLVALUE DUP1 ISZERO PUSH2 0x10 JUMPI PUSH1 0x0 DUP1 REVERT JUMPDEST POP PUSH1 0x4 CALLDATASIZE LT PUSH2 0x36 JUMPI PUSH1 0x0 CALLDATALOAD PUSH1 0xE0 SHR DUP1 PUSH4 0x20C83BDF EQ PUSH2 0x3B JUMPI DUP1 PUSH4 0xE2B95C92 EQ PUSH2 0x62 JUMPI JUMPDEST PUSH1 0x0 DUP1 REVERT JUMPDEST PUSH2 0x4E PUSH2 0x49 CALLDATASIZE PUSH1 0x4 PUSH2 0x141 JUMP JUMPDEST PUSH2 0x75 JUMP JUMPDEST PUSH1 0x40 MLOAD SWAP1 ISZERO ISZERO DUP2 MSTORE PUSH1 0x20 ADD PUSH1 0x40 MLOAD DUP1 SWAP2 SUB SWAP1 RETURN JUMPDEST PUSH2 0x4E PUSH2 0x70 CALLDATASIZE PUSH1 0x4 PUSH2 0x1AC JUMP JUMPDEST PUSH2 0x8E JUMP JUMPDEST PUSH1 0x0 DUP3 TIMESTAMP LT ISZERO DUP1 ISZERO PUSH2 0x87 JUMPI POP DUP2 TIMESTAMP GT ISZERO JUMPDEST SWAP4 SWAP3 POP POP POP JUMP JUMPDEST PUSH1 0x0 DUP1 DUP1 PUSH2 0x9E DUP7 DUP9 ADD DUP9 PUSH2 0x141 JUMP JUMPDEST SWAP2 POP SWAP2 POP DUP2 TIMESTAMP LT ISZERO DUP1 ISZERO PUSH2 0xB2 JUMPI POP DUP1 TIMESTAMP GT ISZERO JUMPDEST PUSH2 0xF8 JUMPI PUSH1 0x40 MLOAD PUSH3 0x461BCD PUSH1 0xE5 SHL DUP2 MSTORE PUSH1 0x20 PUSH1 0x4 DUP3 ADD MSTORE PUSH1 0x13 PUSH1 0x24 DUP3 ADD MSTORE PUSH19 0x4F7574736964652074696D652077696E646F77 PUSH1 0x68 SHL PUSH1 0x44 DUP3 ADD MSTORE PUSH1 0x64 ADD PUSH1 0x40 MLOAD DUP1 SWAP2 SUB SWAP1 REVERT JUMPDEST PUSH1 0x40 DUP1 MLOAD DUP4 DUP2 MSTORE PUSH1 0x20 DUP2 ADD DUP4 SWAP1 MSTORE DUP10 SWAP2 PUSH32 0xA693AD58D5CA64A98F194527F3CE432034611EF7D35C5A5306F5E810DFF1A88 SWAP2 ADD PUSH1 0x40 MLOAD DUP1 SWAP2 SUB SWAP1 LOG2 POP PUSH1 0x1 SWAP8 SWAP7 POP POP POP POP POP POP POP JUMP JUMPDEST PUSH1 0x0 DUP1 PUSH1 0x40 DUP4 DUP6 SUB SLT ISZERO PUSH2 0x154 JUMPI PUSH1 0x0 DUP1 REVERT JUMPDEST POP POP DUP1 CALLDATALOAD SWAP3 PUSH1 0x20 SWAP1 SWAP2 ADD CALLDATALOAD SWAP2 POP JUMP JUMPDEST PUSH1 0x0 DUP1 DUP4 PUSH1 0x1F DUP5 ADD SLT PUSH2 0x175 JUMPI PUSH1 0x0 DUP1 REVERT JUMPDEST POP DUP2 CALLDATALOAD PUSH8 0xFFFFFFFFFFFFFFFF DUP2 GT ISZERO PUSH2 0x18D JUMPI PUSH1 0x0 DUP1 REVERT JUMPDEST PUSH1 0x20 DUP4 ADD SWAP2 POP DUP4 PUSH1 0x20 DUP3 DUP6 ADD ADD GT ISZERO PUSH2 0x1A5 JUMPI PUSH1 0x0 DUP1 REVERT JUMPDEST SWAP3 POP SWAP3 SWAP1 POP JUMP JUMPDEST PUSH1 0x0 DUP1 PUSH1 0x0 DUP1 PUSH1 0x0 PUSH1 0x60 DUP7 DUP9 SUB SLT ISZERO PUSH2 0x1C4 JUMPI PUSH1 0x0 DUP1 REVERT JUMPDEST DUP6 CALLDATALOAD SWAP5 POP PUSH1 0x20 DUP7 ADD CALLDATALOAD PUSH8 0xFFFFFFFFFFFFFFFF DUP1 DUP3 GT ISZERO PUSH2 0x1E3 JUMPI PUSH1 0x0 DUP1 REVERT JUMPDEST PUSH2 0x1EF DUP10 DUP4 DUP11 ADD PUSH2 0x163 JUMP JUMPDEST SWAP1 SWAP7 POP SWAP5 POP PUSH1 0x40 DUP9 ADD CALLDATALOAD SWAP2 POP DUP1 DUP3 GT ISZERO PUSH2 0x208 JUMPI PUSH1 0x0 DUP1 REVERT JUMPDEST POP PUSH2 0x215 DUP9 DUP3 DUP10 ADD PUSH2 0x163 JUMP JUMPDEST SWAP7 SWAP10 SWAP6 SWAP9 POP SWAP4 SWAP7 POP SWAP3 SWAP5 SWAP4 SWAP3 POP POP POP JUMP INVALID LOG2 PUSH5 0x6970667358 0x22 SLT KECCAK256 0xE0 SWAP3 0x29 GAS OR 0xE3 DUP3 0xE1 SWAP5 SGT SUB CALLCODE 0xD7 0xE9 0xBB BYTE 0xBE MLOAD 0xBC PUSH21 0x8F9FBFEE6BC6A8596F0B9E1A64736F6C6343000818 STOP CALLER "},"methodIdentifiers":{"enforceCaveat(bytes32,bytes,bytes)":"e2b95c92","isTimeValid(uint256,uint256)":"20c83bdf"}}}}}