{"contracts/ZKVerifier.sol":{"ZKMembershipVerifier":{"abi":[{"inputs":[],"stateMutability":"nonpayable","type":"constructor"},{"anonymous":false,"inputs":[{"indexed":true,"internalType":"bytes32","name":"commitment","type":"bytes32"}],"name":"CommitmentRegistered","type":"event"},{"anonymous":false,"inputs":[{"indexed":true,"internalType":"bytes32","name":"nullifier","type":"bytes32"}],"name":"NullifierUsed","type":"event"},{"anonymous":false,"inputs":[{"indexed":true,"internalType":"bytes32","name":"commitment","type":"bytes32"},{"indexed":true,"internalType":"bytes32","name":"nullifier","type":"bytes32"},{"indexed":true,"internalType":"address","name":"verifier","type":"address"}],"name":"ProofVerified","type":"event"},{"inputs":[{"internalType":"bytes32","name":"commitment","type":"bytes32"}],"name":"isCommitmentValid","outputs":[{"internalType":"bool","name":"","type":"bool"}],"stateMutability":"view","type":"function"},{"inputs":[{"internalType":"bytes32","name":"nullifier","type":"bytes32"}],"name":"isNullifierUsed","outputs":[{"internalType":"bool","name":"","type":"bool"}],"stateMutability":"view","type":"function"},{"inputs":[{"internalType":"bytes32","name":"commitment","type":"bytes32"}],"name":"registerCommitment","outputs":[],"stateMutability":"nonpayable","type":"function"},{"inputs":[{"internalType":"bytes32","name":"","type":"bytes32"}],"name":"usedNullifiers","outputs":[{"internalType":"bool","name":"","type":"bool"}],"stateMutability":"view","type":"function"},{"inputs":[{"internalType":"bytes32","name":"","type":"bytes32"}],"name":"validCommitments","outputs":[{"internalType":"bool","name":"","type":"bool"}],"stateMutability":"view","type":"function"},{"inputs":[{"internalType":"bytes32","name":"commitment","type":"bytes32"},{"internalType":"bytes","name":"proof","type":"bytes"},{"internalType":"bytes32","name":"nullifier","type":"bytes32"}],"name":"verifyMembership","outputs":[{"internalType":"bool","name":"","type":"bool"}],"stateMutability":"nonpayable","type":"function"}],"evm":{"bytecode":{"linkReferences":{},"object":"608060405234801561001057600080fd5b506001600080604051602001610049907f6d656d626572736869705f747265655f726f6f745f6578616d706c65000000008152601c0190565b60408051808303601f19018152918152815160209283012083529082019290925201600020805460ff191691151591909117905561049c8061008c6000396000f3fe608060405234801561001057600080fd5b50600436106100625760003560e01c80631eafbc0514610067578063206137aa1461009e57806322dc7b4c146100c15780633d4c712a146100e457806342ffdb99146100f7578063d9e314d81461011a575b600080fd5b61008a6100753660046103bb565b60006020819052908152604090205460ff1681565b604051901515815260200160405180910390f35b61008a6100ac3660046103bb565b60016020526000908152604090205460ff1681565b61008a6100cf3660046103bb565b60009081526001602052604090205460ff1690565b61008a6100f23660046103d4565b61012f565b61008a6101053660046103bb565b60009081526020819052604090205460ff1690565b61012d6101283660046103bb565b6102f9565b005b60008481526020819052604081205460ff166101875760405162461bcd60e51b8152602060048201526012602482015271125b9d985b1a590818dbdb5b5a5d1b595b9d60721b60448201526064015b60405180910390fd5b60008281526001602052604090205460ff16156101df5760405162461bcd60e51b8152602060048201526016602482015275139d5b1b1a599a595c88185b1c9958591e481d5cd95960521b604482015260640161017e565b8261021c5760405162461bcd60e51b815260206004820152600d60248201526c24b73b30b634b210383937b7b360991b604482015260640161017e565b600061022a8686868661033c565b9050806102795760405162461bcd60e51b815260206004820152601960248201527f50726f6f6620766572696669636174696f6e206661696c656400000000000000604482015260640161017e565b6000838152600160208190526040808320805460ff1916909217909155513391859189917f7621416042544b5de780d93a4cc03cb6e5445dfad95bd62f7bd7280018146ded91a460405183907f4aac17bcf1974f8ba294b28aaf75fe627cdcc9a03ac55bda3bfe158ab067383c90600090a260019150505b949350505050565b600081815260208190526040808220805460ff191660011790555182917fa403f1b6498d306c2c2e7466a34f587ab745bc1233aaf90ecb33fd40da84e1fa91a250565b600080858360405160200161036f92919091825260208201526a3b30b634b22fb83937b7b360a91b6040820152604b0190565b60408051601f19818403018152919052805160209182012091508411156103af57600085856040516103a2929190610456565b50600192506102f1915050565b50600095945050505050565b6000602082840312156103cd57600080fd5b5035919050565b600080600080606085870312156103ea57600080fd5b84359350602085013567ffffffffffffffff8082111561040957600080fd5b818701915087601f83011261041d57600080fd5b81358181111561042c57600080fd5b88602082850101111561043e57600080fd5b95986020929092019750949560400135945092505050565b818382376000910190815291905056fea26469706673582212205ff35f880ac1edb0d3c358f0fe46d1803c166a054148e74282815145ea2c10bd64736f6c63430008180033","opcodes":"PUSH1 0x80 PUSH1 0x40 MSTORE CALLVALUE DUP1 ISZERO PUSH2 0x10 JUMPI PUSH1 0x0 DUP1 REVERT JUMPDEST POP PUSH1 0x1 PUSH1 0x0 DUP1 PUSH1 0x40 MLOAD PUSH1 0x20 ADD PUSH2 0x49 SWAP1 PUSH32 0x6D656D626572736869705F747265655F726F6F745F6578616D706C6500000000 DUP2 MSTORE PUSH1 0x1C ADD SWAP1 JUMP JUMPDEST PUSH1 0x40 DUP1 MLOAD DUP1 DUP4 SUB PUSH1 0x1F NOT ADD DUP2 MSTORE SWAP2 DUP2 MSTORE DUP2 MLOAD PUSH1 0x20 SWAP3 DUP4 ADD KECCAK256 DUP4 MSTORE SWAP1 DUP3 ADD SWAP3 SWAP1 SWAP3 MSTORE ADD PUSH1 0x0 KECCAK256 DUP1 SLOAD PUSH1 0xFF NOT AND SWAP2 ISZERO ISZERO SWAP2 SWAP1 SWAP2 OR SWAP1 SSTORE PUSH2 0x49C DUP1 PUSH2 0x8C PUSH1 0x0 CODECOPY PUSH1 0x0 RETURN INVALID PUSH1 0x80 PUSH1 0x40 MSTORE CALLVALUE DUP1 ISZERO PUSH2 0x10 JUMPI PUSH1 0x0 DUP1 REVERT JUMPDEST POP PUSH1 0x4 CALLDATASIZE LT PUSH2 0x62 JUMPI PUSH1 0x0 CALLDATALOAD PUSH1 0xE0 SHR DUP1 PUSH4 0x1EAFBC05 EQ PUSH2 0x67 JUMPI DUP1 PUSH4 0x206137AA EQ PUSH2 0x9E JUMPI DUP1 PUSH4 0x22DC7B4C EQ PUSH2 0xC1 JUMPI DUP1 PUSH4 0x3D4C712A EQ PUSH2 0xE4 JUMPI DUP1 PUSH4 0x42FFDB99 EQ PUSH2 0xF7 JUMPI DUP1 PUSH4 0xD9E314D8 EQ PUSH2 0x11A JUMPI JUMPDEST PUSH1 0x0 DUP1 REVERT JUMPDEST PUSH2 0x8A PUSH2 0x75 CALLDATASIZE PUSH1 0x4 PUSH2 0x3BB JUMP JUMPDEST PUSH1 0x0 PUSH1 0x20 DUP2 SWAP1 MSTORE SWAP1 DUP2 MSTORE PUSH1 0x40 SWAP1 KECCAK256 SLOAD PUSH1 0xFF AND DUP2 JUMP JUMPDEST PUSH1 0x40 MLOAD SWAP1 ISZERO ISZERO DUP2 MSTORE PUSH1 0x20 ADD PUSH1 0x40 MLOAD DUP1 SWAP2 SUB SWAP1 RETURN JUMPDEST PUSH2 0x8A PUSH2 0xAC CALLDATASIZE PUSH1 0x4 PUSH2 0x3BB JUMP JUMPDEST PUSH1 0x1 PUSH1 0x20 MSTORE PUSH1 0x0 SWAP1 DUP2 MSTORE PUSH1 0x40 SWAP1 KECCAK256 SLOAD PUSH1 0xFF AND DUP2 JUMP JUMPDEST PUSH2 0x8A PUSH2 0xCF CALLDATASIZE PUSH1 0x4 PUSH2 0x3BB JUMP JUMPDEST PUSH1 0x0 SWAP1 DUP2 MSTORE PUSH1 0x1 PUSH1 0x20 MSTORE PUSH1 0x40 SWAP1 KECCAK256 SLOAD PUSH1 0xFF AND SWAP1 JUMP JUMPDEST PUSH2 0x8A PUSH2 0xF2 CALLDATASIZE PUSH1 0x4 PUSH2 0x3D4 JUMP JUMPDEST PUSH2 0x12F JUMP JUMPDEST PUSH2 0x8A PUSH2 0x105 CALLDATASIZE PUSH1 0x4 PUSH2 0x3BB JUMP JUMPDEST PUSH1 0x0 SWAP1 DUP2 MSTORE PUSH1 0x20 DUP2 SWAP1 MSTORE PUSH1 0x40 SWAP1 KECCAK256 SLOAD PUSH1 0xFF AND SWAP1 JUMP JUMPDEST PUSH2 0x12D PUSH2 0x128 CALLDATASIZE PUSH1 0x4 PUSH2 0x3BB JUMP JUMPDEST PUSH2 0x2F9 JUMP JUMPDEST STOP JUMPDEST PUSH1 0x0 DUP5 DUP2 MSTORE PUSH1 0x20 DUP2 SWAP1 MSTORE PUSH1 0x40 DUP2 KECCAK256 SLOAD PUSH1 0xFF AND PUSH2 0x187 JUMPI PUSH1 0x40 MLOAD PUSH3 0x461BCD PUSH1 0xE5 SHL DUP2 MSTORE PUSH1 0x20 PUSH1 0x4 DUP3 ADD MSTORE PUSH1 0x12 PUSH1 0x24 DUP3 ADD MSTORE PUSH18 0x125B9D985B1A590818DBDB5B5A5D1B595B9D PUSH1 0x72 SHL PUSH1 0x44 DUP3 ADD MSTORE PUSH1 0x64 ADD JUMPDEST PUSH1 0x40 MLOAD DUP1 SWAP2 SUB SWAP1 REVERT JUMPDEST PUSH1 0x0 DUP3 DUP2 MSTORE PUSH1 0x1 PUSH1 0x20 MSTORE PUSH1 0x40 SWAP1 KECCAK256 SLOAD PUSH1 0xFF AND ISZERO PUSH2 0x1DF JUMPI PUSH1 0x40 MLOAD PUSH3 0x461BCD PUSH1 0xE5 SHL DUP2 MSTORE PUSH1 0x20 PUSH1 0x4 DUP3 ADD MSTORE PUSH1 0x16 PUSH1 0x24 DUP3 ADD MSTORE PUSH22 0x139D5B1B1A599A595C88185B1C9958591E481D5CD959 PUSH1 0x52 SHL PUSH1 0x44 DUP3 ADD MSTORE PUSH1 0x64 ADD PUSH2 0x17E JUMP JUMPDEST DUP3 PUSH2 0x21C JUMPI PUSH1 0x40 MLOAD PUSH3 0x461BCD PUSH1 0xE5 SHL DUP2 MSTORE PUSH1 0x20 PUSH1 0x4 DUP3 ADD MSTORE PUSH1 0xD PUSH1 0x24 DUP3 ADD MSTORE PUSH13 0x24B73B30B634B210383937B7B3 PUSH1 0x99 SHL PUSH1 0x44 DUP3 ADD MSTORE PUSH1 0x64 ADD PUSH2 0x17E JUMP JUMPDEST PUSH1 0x0 PUSH2 0x22A DUP7 DUP7 DUP7 DUP7 PUSH2 0x33C JUMP JUMPDEST SWAP1 POP DUP1 PUSH2 0x279 JUMPI PUSH1 0x40 MLOAD PUSH3 0x461BCD PUSH1 0xE5 SHL DUP2 MSTORE PUSH1 0x20 PUSH1 0x4 DUP3 ADD MSTORE PUSH1 0x19 PUSH1 0x24 DUP3 ADD MSTORE PUSH32 0x50726F6F6620766572696669636174696F6E206661696C656400000000000000 PUSH1 0x44 DUP3 ADD MSTORE PUSH1 0x64 ADD PUSH2 0x17E JUMP JUMPDEST PUSH1 0x0 DUP4 DUP2 MSTORE PUSH1 0x1 PUSH1 0x20 DUP2 SWAP1 MSTORE PUSH1 0x40 DUP1 DUP4 KECCAK256 DUP1 SLOAD PUSH1 0xFF NOT AND SWAP1 SWAP3 OR SWAP1 SWAP2 SSTORE MLOAD CALLER SWAP2 DUP6 SWAP2 DUP10 SWAP2 PUSH32 0x7621416042544B5DE780D93A4CC03CB6E5445DFAD95BD62F7BD7280018146DED SWAP2 LOG4 PUSH1 0x40 MLOAD DUP4 SWAP1 PUSH32 0x4AAC17BCF1974F8BA294B28AAF75FE627CDCC9A03AC55BDA3BFE158AB067383C SWAP1 PUSH1 0x0 SWAP1 LOG2 PUSH1 0x1 SWAP2 POP POP JUMPDEST SWAP5 SWAP4 POP POP POP POP JUMP JUMPDEST PUSH1 0x0 DUP2 DUP2 MSTORE PUSH1 0x20 DUP2 SWAP1 MSTORE PUSH1 0x40 DUP1 DUP3 KECCAK256 DUP1 SLOAD PUSH1 0xFF NOT AND PUSH1 0x1 OR SWAP1 SSTORE MLOAD DUP3 SWAP2 PUSH32 0xA403F1B6498D306C2C2E7466A34F587AB745BC1233AAF90ECB33FD40DA84E1FA SWAP2 LOG2 POP JUMP JUMPDEST PUSH1 0x0 DUP1 DUP6 DUP4 PUSH1 0x40 MLOAD PUSH1 0x20 ADD PUSH2 0x36F SWAP3 SWAP2 SWAP1 SWAP2 DUP3 MSTORE PUSH1 0x20 DUP3 ADD MSTORE PUSH11 0x3B30B634B22FB83937B7B3 PUSH1 0xA9 SHL PUSH1 0x40 DUP3 ADD MSTORE PUSH1 0x4B ADD SWAP1 JUMP JUMPDEST PUSH1 0x40 DUP1 MLOAD PUSH1 0x1F NOT DUP2 DUP5 SUB ADD DUP2 MSTORE SWAP2 SWAP1 MSTORE DUP1 MLOAD PUSH1 0x20 SWAP2 DUP3 ADD KECCAK256 SWAP2 POP DUP5 GT ISZERO PUSH2 0x3AF JUMPI PUSH1 0x0 DUP6 DUP6 PUSH1 0x40 MLOAD PUSH2 0x3A2 SWAP3 SWAP2 SWAP1 PUSH2 0x456 JUMP JUMPDEST POP PUSH1 0x1 SWAP3 POP PUSH2 0x2F1 SWAP2 POP POP JUMP JUMPDEST POP PUSH1 0x0 SWAP6 SWAP5 POP POP POP POP POP JUMP JUMPDEST PUSH1 0x0 PUSH1 0x20 DUP3 DUP5 SUB SLT ISZERO PUSH2 0x3CD JUMPI PUSH1 0x0 DUP1 REVERT JUMPDEST POP CALLDATALOAD SWAP2 SWAP1 POP JUMP JUMPDEST PUSH1 0x0 DUP1 PUSH1 0x0 DUP1 PUSH1 0x60 DUP6 DUP8 SUB SLT ISZERO PUSH2 0x3EA JUMPI PUSH1 0x0 DUP1 REVERT JUMPDEST DUP5 CALLDATALOAD SWAP4 POP PUSH1 0x20 DUP6 ADD CALLDATALOAD PUSH8 0xFFFFFFFFFFFFFFFF DUP1 DUP3 GT ISZERO PUSH2 0x409 JUMPI PUSH1 0x0 DUP1 REVERT JUMPDEST DUP2 DUP8 ADD SWAP2 POP DUP8 PUSH1 0x1F DUP4 ADD SLT PUSH2 0x41D JUMPI PUSH1 0x0 DUP1 REVERT JUMPDEST DUP2 CALLDATALOAD DUP2 DUP2 GT ISZERO PUSH2 0x42C JUMPI PUSH1 0x0 DUP1 REVERT JUMPDEST DUP9 PUSH1 0x20 DUP3 DUP6 ADD ADD GT ISZERO PUSH2 0x43E JUMPI PUSH1 0x0 DUP1 REVERT JUMPDEST SWAP6 SWAP9 PUSH1 0x20 SWAP3 SWAP1 SWAP3 ADD SWAP8 POP SWAP5 SWAP6 PUSH1 0x40 ADD CALLDATALOAD SWAP5 POP SWAP3 POP POP POP JUMP JUMPDEST DUP2 DUP4 DUP3 CALLDATACOPY PUSH1 0x0 SWAP2 ADD SWAP1 DUP2 MSTORE SWAP2 SWAP1 POP JUMP INVALID LOG2 PUSH5 0x6970667358 0x22 SLT KECCAK256 PUSH0 RETURN PUSH0 DUP9 EXP 0xC1 0xED 0xB0 0xD3 0xC3 PC CREATE INVALID CHAINID 0xD1 DUP1 EXTCODECOPY AND PUSH11 0x54148E74282815145EA2C LT 0xBD PUSH5 0x736F6C6343 STOP ADDMOD XOR STOP CALLER "},"methodIdentifiers":{"isCommitmentValid(bytes32)":"42ffdb99","isNullifierUsed(bytes32)":"22dc7b4c","registerCommitment(bytes32)":"d9e314d8","usedNullifiers(bytes32)":"206137aa","validCommitments(bytes32)":"1eafbc05","verifyMembership(bytes32,bytes,bytes32)":"3d4c712a"}}}}}