{"contracts/ZKVerifier.sol":{"AgentBudgetEnforcer":{"abi":[{"anonymous":false,"inputs":[{"indexed":true,"internalType":"bytes32","name":"delegationId","type":"bytes32"},{"indexed":false,"internalType":"uint256","name":"spent","type":"uint256"},{"indexed":false,"internalType":"uint256","name":"limit","type":"uint256"}],"name":"BudgetEnforced","type":"event"},{"anonymous":false,"inputs":[{"indexed":true,"internalType":"bytes32","name":"delegationId","type":"bytes32"},{"indexed":false,"internalType":"uint256","name":"day","type":"uint256"}],"name":"BudgetReset","type":"event"},{"inputs":[{"internalType":"bytes32","name":"","type":"bytes32"}],"name":"dailyLimit","outputs":[{"internalType":"uint256","name":"","type":"uint256"}],"stateMutability":"view","type":"function"},{"inputs":[{"internalType":"bytes32","name":"","type":"bytes32"}],"name":"dailySpending","outputs":[{"internalType":"uint256","name":"","type":"uint256"}],"stateMutability":"view","type":"function"},{"inputs":[{"internalType":"bytes32","name":"delegationId","type":"bytes32"},{"internalType":"bytes","name":"terms","type":"bytes"},{"internalType":"bytes","name":"callData","type":"bytes"}],"name":"enforceCaveat","outputs":[{"internalType":"bool","name":"","type":"bool"}],"stateMutability":"nonpayable","type":"function"},{"inputs":[{"internalType":"bytes32","name":"delegationId","type":"bytes32"}],"name":"getRemainingBudget","outputs":[{"internalType":"uint256","name":"","type":"uint256"}],"stateMutability":"view","type":"function"},{"inputs":[{"internalType":"bytes32","name":"","type":"bytes32"}],"name":"lastResetDay","outputs":[{"internalType":"uint256","name":"","type":"uint256"}],"stateMutability":"view","type":"function"}],"evm":{"bytecode":{"linkReferences":{},"object":"608060405234801561001057600080fd5b506104ac806100206000396000f3fe608060405234801561001057600080fd5b50600436106100575760003560e01c80636b23d3a11461005c5780637428b7bf1461008f57806387f98a3d146100af578063decb8763146100cf578063e2b95c92146100e2575b600080fd5b61007c61006a3660046102f4565b60016020526000908152604090205481565b6040519081526020015b60405180910390f35b61007c61009d3660046102f4565b60006020819052908152604090205481565b61007c6100bd3660046102f4565b60026020526000908152604090205481565b61007c6100dd3660046102f4565b610105565b6100f56100f0366004610356565b610142565b6040519015158152602001610086565b60008181526002602090815260408083205491839052822054808211156101385761013081836103e6565b949350505050565b5060009392505050565b600080610151858701876102f4565b9050600061016262015180426103f9565b600089815260016020526040902054909150808211156101cc57600089815260208181526040808320839055600182529182902084905590518381528a917f179a4e334b598467108e6b6b9018f9ac7fc236838da660e2cb43d2529d3f9362910160405180910390a25b60006101d887876102c2565b60008b81526020819052604090205490915084906101f790839061041b565b111561023b5760405162461bcd60e51b815260206004820152600f60248201526e109d5919d95d08195e18d959591959608a1b604482015260640160405180910390fd5b60008a8152602081905260408120805483929061025990849061041b565b909155505060008a8152600260209081526040808320879055828252918290205482519081529081018690528b917fc148a505e2dfcc2bf5256d72bd0a6e0b3d94bd72ee6493e789e9888996ed2734910160405180910390a25060019998505050505050505050565b6000604482106102ea576102da60446024848661042e565b6102e391610458565b90506102ee565b5060005b92915050565b60006020828403121561030657600080fd5b5035919050565b60008083601f84011261031f57600080fd5b50813567ffffffffffffffff81111561033757600080fd5b60208301915083602082850101111561034f57600080fd5b9250929050565b60008060008060006060868803121561036e57600080fd5b85359450602086013567ffffffffffffffff8082111561038d57600080fd5b61039989838a0161030d565b909650945060408801359150808211156103b257600080fd5b506103bf8882890161030d565b969995985093965092949392505050565b634e487b7160e01b600052601160045260246000fd5b818103818111156102ee576102ee6103d0565b60008261041657634e487b7160e01b600052601260045260246000fd5b500490565b808201808211156102ee576102ee6103d0565b6000808585111561043e57600080fd5b8386111561044b57600080fd5b5050820193919092039150565b803560208310156102ee57600019602084900360031b1b169291505056fea2646970667358221220a08996e2b543d1e038e2fd3f10ff6a644b118ccd9c81ad1ee7ef663b4064aad564736f6c63430008180033","opcodes":"PUSH1 0x80 PUSH1 0x40 MSTORE CALLVALUE DUP1 ISZERO PUSH2 0x10 JUMPI PUSH1 0x0 DUP1 REVERT JUMPDEST POP PUSH2 0x4AC DUP1 PUSH2 0x20 PUSH1 0x0 CODECOPY PUSH1 0x0 RETURN INVALID PUSH1 0x80 PUSH1 0x40 MSTORE CALLVALUE DUP1 ISZERO PUSH2 0x10 JUMPI PUSH1 0x0 DUP1 REVERT JUMPDEST POP PUSH1 0x4 CALLDATASIZE LT PUSH2 0x57 JUMPI PUSH1 0x0 CALLDATALOAD PUSH1 0xE0 SHR DUP1 PUSH4 0x6B23D3A1 EQ PUSH2 0x5C JUMPI DUP1 PUSH4 0x7428B7BF EQ PUSH2 0x8F JUMPI DUP1 PUSH4 0x87F98A3D EQ PUSH2 0xAF JUMPI DUP1 PUSH4 0xDECB8763 EQ PUSH2 0xCF JUMPI DUP1 PUSH4 0xE2B95C92 EQ PUSH2 0xE2 JUMPI JUMPDEST PUSH1 0x0 DUP1 REVERT JUMPDEST PUSH2 0x7C PUSH2 0x6A CALLDATASIZE PUSH1 0x4 PUSH2 0x2F4 JUMP JUMPDEST PUSH1 0x1 PUSH1 0x20 MSTORE PUSH1 0x0 SWAP1 DUP2 MSTORE PUSH1 0x40 SWAP1 KECCAK256 SLOAD DUP2 JUMP JUMPDEST PUSH1 0x40 MLOAD SWAP1 DUP2 MSTORE PUSH1 0x20 ADD JUMPDEST PUSH1 0x40 MLOAD DUP1 SWAP2 SUB SWAP1 RETURN JUMPDEST PUSH2 0x7C PUSH2 0x9D CALLDATASIZE PUSH1 0x4 PUSH2 0x2F4 JUMP JUMPDEST PUSH1 0x0 PUSH1 0x20 DUP2 SWAP1 MSTORE SWAP1 DUP2 MSTORE PUSH1 0x40 SWAP1 KECCAK256 SLOAD DUP2 JUMP JUMPDEST PUSH2 0x7C PUSH2 0xBD CALLDATASIZE PUSH1 0x4 PUSH2 0x2F4 JUMP JUMPDEST PUSH1 0x2 PUSH1 0x20 MSTORE PUSH1 0x0 SWAP1 DUP2 MSTORE PUSH1 0x40 SWAP1 KECCAK256 SLOAD DUP2 JUMP JUMPDEST PUSH2 0x7C PUSH2 0xDD CALLDATASIZE PUSH1 0x4 PUSH2 0x2F4 JUMP JUMPDEST PUSH2 0x105 JUMP JUMPDEST PUSH2 0xF5 PUSH2 0xF0 CALLDATASIZE PUSH1 0x4 PUSH2 0x356 JUMP JUMPDEST PUSH2 0x142 JUMP JUMPDEST PUSH1 0x40 MLOAD SWAP1 ISZERO ISZERO DUP2 MSTORE PUSH1 0x20 ADD PUSH2 0x86 JUMP JUMPDEST PUSH1 0x0 DUP2 DUP2 MSTORE PUSH1 0x2 PUSH1 0x20 SWAP1 DUP2 MSTORE PUSH1 0x40 DUP1 DUP4 KECCAK256 SLOAD SWAP2 DUP4 SWAP1 MSTORE DUP3 KECCAK256 SLOAD DUP1 DUP3 GT ISZERO PUSH2 0x138 JUMPI PUSH2 0x130 DUP2 DUP4 PUSH2 0x3E6 JUMP JUMPDEST SWAP5 SWAP4 POP POP POP POP JUMP JUMPDEST POP PUSH1 0x0 SWAP4 SWAP3 POP POP POP JUMP JUMPDEST PUSH1 0x0 DUP1 PUSH2 0x151 DUP6 DUP8 ADD DUP8 PUSH2 0x2F4 JUMP JUMPDEST SWAP1 POP PUSH1 0x0 PUSH2 0x162 PUSH3 0x15180 TIMESTAMP PUSH2 0x3F9 JUMP JUMPDEST PUSH1 0x0 DUP10 DUP2 MSTORE PUSH1 0x1 PUSH1 0x20 MSTORE PUSH1 0x40 SWAP1 KECCAK256 SLOAD SWAP1 SWAP2 POP DUP1 DUP3 GT ISZERO PUSH2 0x1CC JUMPI PUSH1 0x0 DUP10 DUP2 MSTORE PUSH1 0x20 DUP2 DUP2 MSTORE PUSH1 0x40 DUP1 DUP4 KECCAK256 DUP4 SWAP1 SSTORE PUSH1 0x1 DUP3 MSTORE SWAP2 DUP3 SWAP1 KECCAK256 DUP5 SWAP1 SSTORE SWAP1 MLOAD DUP4 DUP2 MSTORE DUP11 SWAP2 PUSH32 0x179A4E334B598467108E6B6B9018F9AC7FC236838DA660E2CB43D2529D3F9362 SWAP2 ADD PUSH1 0x40 MLOAD DUP1 SWAP2 SUB SWAP1 LOG2 JUMPDEST PUSH1 0x0 PUSH2 0x1D8 DUP8 DUP8 PUSH2 0x2C2 JUMP JUMPDEST PUSH1 0x0 DUP12 DUP2 MSTORE PUSH1 0x20 DUP2 SWAP1 MSTORE PUSH1 0x40 SWAP1 KECCAK256 SLOAD SWAP1 SWAP2 POP DUP5 SWAP1 PUSH2 0x1F7 SWAP1 DUP4 SWAP1 PUSH2 0x41B JUMP JUMPDEST GT ISZERO PUSH2 0x23B JUMPI PUSH1 0x40 MLOAD PUSH3 0x461BCD PUSH1 0xE5 SHL DUP2 MSTORE PUSH1 0x20 PUSH1 0x4 DUP3 ADD MSTORE PUSH1 0xF PUSH1 0x24 DUP3 ADD MSTORE PUSH15 0x109D5919D95D08195E18D959591959 PUSH1 0x8A SHL PUSH1 0x44 DUP3 ADD MSTORE PUSH1 0x64 ADD PUSH1 0x40 MLOAD DUP1 SWAP2 SUB SWAP1 REVERT JUMPDEST PUSH1 0x0 DUP11 DUP2 MSTORE PUSH1 0x20 DUP2 SWAP1 MSTORE PUSH1 0x40 DUP2 KECCAK256 DUP1 SLOAD DUP4 SWAP3 SWAP1 PUSH2 0x259 SWAP1 DUP5 SWAP1 PUSH2 0x41B JUMP JUMPDEST SWAP1 SWAP2 SSTORE POP POP PUSH1 0x0 DUP11 DUP2 MSTORE PUSH1 0x2 PUSH1 0x20 SWAP1 DUP2 MSTORE PUSH1 0x40 DUP1 DUP4 KECCAK256 DUP8 SWAP1 SSTORE DUP3 DUP3 MSTORE SWAP2 DUP3 SWAP1 KECCAK256 SLOAD DUP3 MLOAD SWAP1 DUP2 MSTORE SWAP1 DUP2 ADD DUP7 SWAP1 MSTORE DUP12 SWAP2 PUSH32 0xC148A505E2DFCC2BF5256D72BD0A6E0B3D94BD72EE6493E789E9888996ED2734 SWAP2 ADD PUSH1 0x40 MLOAD DUP1 SWAP2 SUB SWAP1 LOG2 POP PUSH1 0x1 SWAP10 SWAP9 POP POP POP POP POP POP POP POP POP JUMP JUMPDEST PUSH1 0x0 PUSH1 0x44 DUP3 LT PUSH2 0x2EA JUMPI PUSH2 0x2DA PUSH1 0x44 PUSH1 0x24 DUP5 DUP7 PUSH2 0x42E JUMP JUMPDEST PUSH2 0x2E3 SWAP2 PUSH2 0x458 JUMP JUMPDEST SWAP1 POP PUSH2 0x2EE JUMP JUMPDEST POP PUSH1 0x0 JUMPDEST SWAP3 SWAP2 POP POP JUMP JUMPDEST PUSH1 0x0 PUSH1 0x20 DUP3 DUP5 SUB SLT ISZERO PUSH2 0x306 JUMPI PUSH1 0x0 DUP1 REVERT JUMPDEST POP CALLDATALOAD SWAP2 SWAP1 POP JUMP JUMPDEST PUSH1 0x0 DUP1 DUP4 PUSH1 0x1F DUP5 ADD SLT PUSH2 0x31F JUMPI PUSH1 0x0 DUP1 REVERT JUMPDEST POP DUP2 CALLDATALOAD PUSH8 0xFFFFFFFFFFFFFFFF DUP2 GT ISZERO PUSH2 0x337 JUMPI PUSH1 0x0 DUP1 REVERT JUMPDEST PUSH1 0x20 DUP4 ADD SWAP2 POP DUP4 PUSH1 0x20 DUP3 DUP6 ADD ADD GT ISZERO PUSH2 0x34F JUMPI PUSH1 0x0 DUP1 REVERT JUMPDEST SWAP3 POP SWAP3 SWAP1 POP JUMP JUMPDEST PUSH1 0x0 DUP1 PUSH1 0x0 DUP1 PUSH1 0x0 PUSH1 0x60 DUP7 DUP9 SUB SLT ISZERO PUSH2 0x36E JUMPI PUSH1 0x0 DUP1 REVERT JUMPDEST DUP6 CALLDATALOAD SWAP5 POP PUSH1 0x20 DUP7 ADD CALLDATALOAD PUSH8 0xFFFFFFFFFFFFFFFF DUP1 DUP3 GT ISZERO PUSH2 0x38D JUMPI PUSH1 0x0 DUP1 REVERT JUMPDEST PUSH2 0x399 DUP10 DUP4 DUP11 ADD PUSH2 0x30D JUMP JUMPDEST SWAP1 SWAP7 POP SWAP5 POP PUSH1 0x40 DUP9 ADD CALLDATALOAD SWAP2 POP DUP1 DUP3 GT ISZERO PUSH2 0x3B2 JUMPI PUSH1 0x0 DUP1 REVERT JUMPDEST POP PUSH2 0x3BF DUP9 DUP3 DUP10 ADD PUSH2 0x30D JUMP JUMPDEST SWAP7 SWAP10 SWAP6 SWAP9 POP SWAP4 SWAP7 POP SWAP3 SWAP5 SWAP4 SWAP3 POP POP POP JUMP JUMPDEST PUSH4 0x4E487B71 PUSH1 0xE0 SHL PUSH1 0x0 MSTORE PUSH1 0x11 PUSH1 0x4 MSTORE PUSH1 0x24 PUSH1 0x0 REVERT JUMPDEST DUP2 DUP2 SUB DUP2 DUP2 GT ISZERO PUSH2 0x2EE JUMPI PUSH2 0x2EE PUSH2 0x3D0 JUMP JUMPDEST PUSH1 0x0 DUP3 PUSH2 0x416 JUMPI PUSH4 0x4E487B71 PUSH1 0xE0 SHL PUSH1 0x0 MSTORE PUSH1 0x12 PUSH1 0x4 MSTORE PUSH1 0x24 PUSH1 0x0 REVERT JUMPDEST POP DIV SWAP1 JUMP JUMPDEST DUP1 DUP3 ADD DUP1 DUP3 GT ISZERO PUSH2 0x2EE JUMPI PUSH2 0x2EE PUSH2 0x3D0 JUMP JUMPDEST PUSH1 0x0 DUP1 DUP6 DUP6 GT ISZERO PUSH2 0x43E JUMPI PUSH1 0x0 DUP1 REVERT JUMPDEST DUP4 DUP7 GT ISZERO PUSH2 0x44B JUMPI PUSH1 0x0 DUP1 REVERT JUMPDEST POP POP DUP3 ADD SWAP4 SWAP2 SWAP1 SWAP3 SUB SWAP2 POP JUMP JUMPDEST DUP1 CALLDATALOAD PUSH1 0x20 DUP4 LT ISZERO PUSH2 0x2EE JUMPI PUSH1 0x0 NOT PUSH1 0x20 DUP5 SWAP1 SUB PUSH1 0x3 SHL SHL AND SWAP3 SWAP2 POP POP JUMP INVALID LOG2 PUSH5 0x6970667358 0x22 SLT KECCAK256 LOG0 DUP10 SWAP7 0xE2 0xB5 NUMBER 0xD1 0xE0 CODESIZE 0xE2 REVERT EXTCODEHASH LT SELFDESTRUCT PUSH11 0x644B118CCD9C81AD1EE7EF PUSH7 0x3B4064AAD56473 PUSH16 0x6C634300081800330000000000000000 "},"methodIdentifiers":{"dailyLimit(bytes32)":"87f98a3d","dailySpending(bytes32)":"7428b7bf","enforceCaveat(bytes32,bytes,bytes)":"e2b95c92","getRemainingBudget(bytes32)":"decb8763","lastResetDay(bytes32)":"6b23d3a1"}}}}}