{
  "_format": "hh-sol-artifact-1",
  "contractName": "AllowedMethodsEnforcer",
  "sourceName": "contracts/CaveatEnforcers.sol",
  "abi": [
    {
      "anonymous": false,
      "inputs": [
        {
          "indexed": true,
          "internalType": "bytes32",
          "name": "delegationId",
          "type": "bytes32"
        },
        {
          "indexed": true,
          "internalType": "bytes4",
          "name": "methodSelector",
          "type": "bytes4"
        }
      ],
      "name": "MethodAllowed",
      "type": "event"
    },
    {
      "inputs": [
        {
          "internalType": "bytes32",
          "name": "delegationId",
          "type": "bytes32"
        },
        {
          "internalType": "bytes4",
          "name": "methodSelector",
          "type": "bytes4"
        }
      ],
      "name": "addAllowedMethod",
      "outputs": [],
      "stateMutability": "nonpayable",
      "type": "function"
    },
    {
      "inputs": [
        {
          "internalType": "bytes32",
          "name": "",
          "type": "bytes32"
        },
        {
          "internalType": "uint256",
          "name": "",
          "type": "uint256"
        }
      ],
      "name": "allowedMethods",
      "outputs": [
        {
          "internalType": "bytes4",
          "name": "",
          "type": "bytes4"
        }
      ],
      "stateMutability": "view",
      "type": "function"
    },
    {
      "inputs": [
        {
          "internalType": "bytes32",
          "name": "delegationId",
          "type": "bytes32"
        },
        {
          "internalType": "bytes",
          "name": "terms",
          "type": "bytes"
        },
        {
          "internalType": "bytes",
          "name": "callData",
          "type": "bytes"
        }
      ],
      "name": "enforceCaveat",
      "outputs": [
        {
          "internalType": "bool",
          "name": "",
          "type": "bool"
        }
      ],
      "stateMutability": "nonpayable",
      "type": "function"
    },
    {
      "inputs": [
        {
          "internalType": "bytes32",
          "name": "delegationId",
          "type": "bytes32"
        }
      ],
      "name": "getAllowedMethods",
      "outputs": [
        {
          "internalType": "bytes4[]",
          "name": "",
          "type": "bytes4[]"
        }
      ],
      "stateMutability": "view",
      "type": "function"
    }
  ],
  "bytecode": "0x608060405234801561001057600080fd5b50610617806100206000396000f3fe608060405234801561001057600080fd5b506004361061004c5760003560e01c806333c7af94146100515780636b6edda314610082578063da67649114610097578063e2b95c92146100b7575b600080fd5b61006461005f366004610301565b6100da565b6040516001600160e01b031990911681526020015b60405180910390f35b610095610090366004610340565b610120565b005b6100aa6100a536600461036c565b6101a1565b6040516100799190610385565b6100ca6100c536600461041c565b61022e565b6040519015158152602001610079565b600060205281600052604060002081815481106100f657600080fd5b9060005260206000209060089182820401919006600402915091509054906101000a900460e01b81565b60008281526020818152604080832080546001810182559084529183206008830401805463ffffffff60079094166004026101000a938402191660e086901c9390930292909217909155516001600160e01b031983169184917f82d151aa9508da8870b9baaf2acbe1f131d56668cd0cfa97d2ab6b8749c36ed09190a35050565b6000818152602081815260409182902080548351818402810184019094528084526060939283018282801561022257602002820191906000526020600020906000905b82829054906101000a900460e01b6001600160e01b031916815260200190600401906020826003010492830192600103820291508084116101e45790505b50505050509050919050565b60008061023d858701876104ac565b9050600061024e6004828688610571565b6102579161059b565b90506000805b83518110156102ab57826001600160e01b031916848281518110610283576102836105cb565b60200260200101516001600160e01b031916036102a357600191506102ab565b60010161025d565b50806102f25760405162461bcd60e51b815260206004820152601260248201527113595d1a1bd9081b9bdd08185b1b1bddd95960721b604482015260640160405180910390fd5b50600198975050505050505050565b6000806040838503121561031457600080fd5b50508035926020909101359150565b80356001600160e01b03198116811461033b57600080fd5b919050565b6000806040838503121561035357600080fd5b8235915061036360208401610323565b90509250929050565b60006020828403121561037e57600080fd5b5035919050565b6020808252825182820181905260009190848201906040850190845b818110156103c75783516001600160e01b031916835292840192918401916001016103a1565b50909695505050505050565b60008083601f8401126103e557600080fd5b50813567ffffffffffffffff8111156103fd57600080fd5b60208301915083602082850101111561041557600080fd5b9250929050565b60008060008060006060868803121561043457600080fd5b85359450602086013567ffffffffffffffff8082111561045357600080fd5b61045f89838a016103d3565b9096509450604088013591508082111561047857600080fd5b50610485888289016103d3565b969995985093965092949392505050565b634e487b7160e01b600052604160045260246000fd5b600060208083850312156104bf57600080fd5b823567ffffffffffffffff808211156104d757600080fd5b818501915085601f8301126104eb57600080fd5b8135818111156104fd576104fd610496565b8060051b604051601f19603f8301168101818110858211171561052257610522610496565b60405291825284820192508381018501918883111561054057600080fd5b938501935b828510156105655761055685610323565b84529385019392850192610545565b98975050505050505050565b6000808585111561058157600080fd5b8386111561058e57600080fd5b5050820193919092039150565b6001600160e01b031981358181169160048510156105c35780818660040360031b1b83161692505b505092915050565b634e487b7160e01b600052603260045260246000fdfea2646970667358221220fefbd912246bbda4cf8c7f36b4295cfd13ffc69a9c8d973a4440cef22ee97b6a64736f6c63430008180033",
  "linkReferences": {},
  "deployedLinkReferences": {}
}