{
  "_format": "hh-sol-artifact-1",
  "contractName": "AllowedTargetsEnforcer",
  "sourceName": "contracts/CaveatEnforcers.sol",
  "abi": [
    {
      "anonymous": false,
      "inputs": [
        {
          "indexed": true,
          "internalType": "bytes32",
          "name": "delegationId",
          "type": "bytes32"
        },
        {
          "indexed": true,
          "internalType": "address",
          "name": "target",
          "type": "address"
        }
      ],
      "name": "TargetAllowed",
      "type": "event"
    },
    {
      "anonymous": false,
      "inputs": [
        {
          "indexed": true,
          "internalType": "bytes32",
          "name": "delegationId",
          "type": "bytes32"
        },
        {
          "indexed": false,
          "internalType": "address",
          "name": "target",
          "type": "address"
        }
      ],
      "name": "TargetEnforced",
      "type": "event"
    },
    {
      "inputs": [
        {
          "internalType": "bytes32",
          "name": "delegationId",
          "type": "bytes32"
        },
        {
          "internalType": "address",
          "name": "target",
          "type": "address"
        }
      ],
      "name": "addAllowedTarget",
      "outputs": [],
      "stateMutability": "nonpayable",
      "type": "function"
    },
    {
      "inputs": [
        {
          "internalType": "bytes32",
          "name": "",
          "type": "bytes32"
        },
        {
          "internalType": "uint256",
          "name": "",
          "type": "uint256"
        }
      ],
      "name": "allowedTargets",
      "outputs": [
        {
          "internalType": "address",
          "name": "",
          "type": "address"
        }
      ],
      "stateMutability": "view",
      "type": "function"
    },
    {
      "inputs": [
        {
          "internalType": "bytes32",
          "name": "delegationId",
          "type": "bytes32"
        },
        {
          "internalType": "bytes",
          "name": "terms",
          "type": "bytes"
        },
        {
          "internalType": "bytes",
          "name": "callData",
          "type": "bytes"
        }
      ],
      "name": "enforceCaveat",
      "outputs": [
        {
          "internalType": "bool",
          "name": "",
          "type": "bool"
        }
      ],
      "stateMutability": "nonpayable",
      "type": "function"
    },
    {
      "inputs": [
        {
          "internalType": "bytes32",
          "name": "delegationId",
          "type": "bytes32"
        }
      ],
      "name": "getAllowedTargets",
      "outputs": [
        {
          "internalType": "address[]",
          "name": "",
          "type": "address[]"
        }
      ],
      "stateMutability": "view",
      "type": "function"
    }
  ],
  "bytecode": "0x608060405234801561001057600080fd5b50610568806100206000396000f3fe608060405234801561001057600080fd5b506004361061004c5760003560e01c80633558028a1461005157806342c27e7014610081578063bb568be6146100a1578063e2b95c92146100b6575b600080fd5b61006461005f3660046102ae565b6100d9565b6040516001600160a01b0390911681526020015b60405180910390f35b61009461008f3660046102d0565b610111565b60405161007891906102e9565b6100b46100af366004610352565b61017b565b005b6100c96100c43660046103c7565b6101e5565b6040519015158152602001610078565b600060205281600052604060002081815481106100f557600080fd5b6000918252602090912001546001600160a01b03169150829050565b6000818152602081815260409182902080548351818402810184019094528084526060939283018282801561016f57602002820191906000526020600020905b81546001600160a01b03168152600190910190602001808311610151575b50505050509050919050565b600082815260208181526040808320805460018101825590845291832090910180546001600160a01b0319166001600160a01b0385169081179091559051909184917f9841b8f666499655a4c2056ccf86dc0ec2e948a7b6a69fd380a50113bc2aedac9190a35050565b6000806101f485870187610457565b905060008151116102405760405162461bcd60e51b8152602060048201526012602482015271139bc81d185c99d95d1cc8185b1b1bddd95960721b604482015260640160405180910390fd5b867fd5790935d2fc6ba5e9b07424e97f12e5938d1de5372883e22757346c90e5b4d9826000815181106102755761027561051c565b602002602001015160405161029991906001600160a01b0391909116815260200190565b60405180910390a25060019695505050505050565b600080604083850312156102c157600080fd5b50508035926020909101359150565b6000602082840312156102e257600080fd5b5035919050565b6020808252825182820181905260009190848201906040850190845b8181101561032a5783516001600160a01b031683529284019291840191600101610305565b50909695505050505050565b80356001600160a01b038116811461034d57600080fd5b919050565b6000806040838503121561036557600080fd5b8235915061037560208401610336565b90509250929050565b60008083601f84011261039057600080fd5b50813567ffffffffffffffff8111156103a857600080fd5b6020830191508360208285010111156103c057600080fd5b9250929050565b6000806000806000606086880312156103df57600080fd5b85359450602086013567ffffffffffffffff808211156103fe57600080fd5b61040a89838a0161037e565b9096509450604088013591508082111561042357600080fd5b506104308882890161037e565b969995985093965092949392505050565b634e487b7160e01b600052604160045260246000fd5b6000602080838503121561046a57600080fd5b823567ffffffffffffffff8082111561048257600080fd5b818501915085601f83011261049657600080fd5b8135818111156104a8576104a8610441565b8060051b604051601f19603f830116810181811085821117156104cd576104cd610441565b6040529182528482019250838101850191888311156104eb57600080fd5b938501935b828510156105105761050185610336565b845293850193928501926104f0565b98975050505050505050565b634e487b7160e01b600052603260045260246000fdfea2646970667358221220f995485f50bcfd9477487ec8a6cb4dd30db90abe53266dba453c907593b10afc64736f6c63430008180033",
  "linkReferences": {},
  "deployedLinkReferences": {}
}