{
  "_format": "hh-sol-artifact-1",
  "contractName": "NativeTokenTransferAmountEnforcer",
  "sourceName": "contracts/CaveatEnforcers.sol",
  "abi": [
    {
      "anonymous": false,
      "inputs": [
        {
          "indexed": true,
          "internalType": "bytes32",
          "name": "delegationId",
          "type": "bytes32"
        },
        {
          "indexed": false,
          "internalType": "uint256",
          "name": "spent",
          "type": "uint256"
        },
        {
          "indexed": false,
          "internalType": "uint256",
          "name": "maxAmount",
          "type": "uint256"
        }
      ],
      "name": "CaveatEnforced",
      "type": "event"
    },
    {
      "inputs": [
        {
          "internalType": "bytes32",
          "name": "delegationId",
          "type": "bytes32"
        },
        {
          "internalType": "bytes",
          "name": "terms",
          "type": "bytes"
        },
        {
          "internalType": "bytes",
          "name": "callData",
          "type": "bytes"
        }
      ],
      "name": "enforceCaveat",
      "outputs": [
        {
          "internalType": "bool",
          "name": "",
          "type": "bool"
        }
      ],
      "stateMutability": "nonpayable",
      "type": "function"
    },
    {
      "inputs": [
        {
          "internalType": "bytes32",
          "name": "delegationId",
          "type": "bytes32"
        }
      ],
      "name": "getRemainingBudget",
      "outputs": [
        {
          "internalType": "uint256",
          "name": "",
          "type": "uint256"
        }
      ],
      "stateMutability": "view",
      "type": "function"
    },
    {
      "inputs": [
        {
          "internalType": "bytes32",
          "name": "",
          "type": "bytes32"
        }
      ],
      "name": "maxAmount",
      "outputs": [
        {
          "internalType": "uint256",
          "name": "",
          "type": "uint256"
        }
      ],
      "stateMutability": "view",
      "type": "function"
    },
    {
      "inputs": [
        {
          "internalType": "bytes32",
          "name": "",
          "type": "bytes32"
        }
      ],
      "name": "resetTime",
      "outputs": [
        {
          "internalType": "uint256",
          "name": "",
          "type": "uint256"
        }
      ],
      "stateMutability": "view",
      "type": "function"
    },
    {
      "inputs": [
        {
          "internalType": "bytes32",
          "name": "",
          "type": "bytes32"
        }
      ],
      "name": "spentAmount",
      "outputs": [
        {
          "internalType": "uint256",
          "name": "",
          "type": "uint256"
        }
      ],
      "stateMutability": "view",
      "type": "function"
    }
  ],
  "bytecode": "0x608060405234801561001057600080fd5b50610463806100206000396000f3fe608060405234801561001057600080fd5b50600436106100575760003560e01c80631a564a0b1461005c578063431f96ac1461008f578063db656ff9146100af578063decb8763146100cf578063e2b95c92146100e2575b600080fd5b61007c61006a3660046102ab565b60016020526000908152604090205481565b6040519081526020015b60405180910390f35b61007c61009d3660046102ab565b60026020526000908152604090205481565b61007c6100bd3660046102ab565b60006020819052908152604090205481565b61007c6100dd3660046102ab565b610105565b6100f56100f036600461030d565b61012d565b6040519015158152602001610086565b600081815260208181526040808320546001909252822054610127919061039d565b92915050565b6000808061013d868801886103b0565b60008a815260026020526040902054919350915061015c9082906103d2565b42111561018057600088815260208181526040808320839055600290915290204290555b600061018c868661027a565b60008a81526020819052604090205490915083906101ab9083906103d2565b11156101f45760405162461bcd60e51b8152602060048201526014602482015273105b5bdd5b9d08195e18d959591cc81b1a5b5a5d60621b604482015260640160405180910390fd5b600089815260208190526040812080548392906102129084906103d2565b90915550506000898152600160209081526040808320869055828252918290205482519081529081018590528a917f316dfcaa354514396d48bb07d518321c8ca62fa975dbcd53af0a6c2de4f3d36a910160405180910390a250600198975050505050505050565b6000604482106102a2576102926044602484866103e5565b61029b9161040f565b9050610127565b50600092915050565b6000602082840312156102bd57600080fd5b5035919050565b60008083601f8401126102d657600080fd5b50813567ffffffffffffffff8111156102ee57600080fd5b60208301915083602082850101111561030657600080fd5b9250929050565b60008060008060006060868803121561032557600080fd5b85359450602086013567ffffffffffffffff8082111561034457600080fd5b61035089838a016102c4565b9096509450604088013591508082111561036957600080fd5b50610376888289016102c4565b969995985093965092949392505050565b634e487b7160e01b600052601160045260246000fd5b8181038181111561012757610127610387565b600080604083850312156103c357600080fd5b50508035926020909101359150565b8082018082111561012757610127610387565b600080858511156103f557600080fd5b8386111561040257600080fd5b5050820193919092039150565b8035602083101561012757600019602084900360031b1b169291505056fea264697066735822122021787730859e4929e3cbb6f0f42bf1b9e2cf43488615ab0e9e993b0463cce18664736f6c63430008180033",
  "linkReferences": {},
  "deployedLinkReferences": {}
}