{
  "_format": "hh-sol-artifact-1",
  "contractName": "RateLimitEnforcer",
  "sourceName": "contracts/CaveatEnforcers.sol",
  "abi": [
    {
      "anonymous": false,
      "inputs": [
        {
          "indexed": true,
          "internalType": "bytes32",
          "name": "delegationId",
          "type": "bytes32"
        },
        {
          "indexed": false,
          "internalType": "uint256",
          "name": "currentCount",
          "type": "uint256"
        },
        {
          "indexed": false,
          "internalType": "uint256",
          "name": "maxPerHour",
          "type": "uint256"
        }
      ],
      "name": "RateLimited",
      "type": "event"
    },
    {
      "inputs": [
        {
          "internalType": "bytes32",
          "name": "",
          "type": "bytes32"
        }
      ],
      "name": "actionCount",
      "outputs": [
        {
          "internalType": "uint256",
          "name": "",
          "type": "uint256"
        }
      ],
      "stateMutability": "view",
      "type": "function"
    },
    {
      "inputs": [
        {
          "internalType": "bytes32",
          "name": "delegationId",
          "type": "bytes32"
        },
        {
          "internalType": "bytes",
          "name": "terms",
          "type": "bytes"
        },
        {
          "internalType": "bytes",
          "name": "callData",
          "type": "bytes"
        }
      ],
      "name": "enforceCaveat",
      "outputs": [
        {
          "internalType": "bool",
          "name": "",
          "type": "bool"
        }
      ],
      "stateMutability": "nonpayable",
      "type": "function"
    },
    {
      "inputs": [
        {
          "internalType": "bytes32",
          "name": "delegationId",
          "type": "bytes32"
        },
        {
          "internalType": "uint256",
          "name": "maxPerHour",
          "type": "uint256"
        }
      ],
      "name": "getRemainingActions",
      "outputs": [
        {
          "internalType": "uint256",
          "name": "",
          "type": "uint256"
        }
      ],
      "stateMutability": "view",
      "type": "function"
    },
    {
      "inputs": [
        {
          "internalType": "bytes32",
          "name": "",
          "type": "bytes32"
        }
      ],
      "name": "lastResetTime",
      "outputs": [
        {
          "internalType": "uint256",
          "name": "",
          "type": "uint256"
        }
      ],
      "stateMutability": "view",
      "type": "function"
    }
  ],
  "bytecode": "0x608060405234801561001057600080fd5b506103b5806100206000396000f3fe608060405234801561001057600080fd5b506004361061004c5760003560e01c806321c0801a1461005157806350cd2262146100775780635f5ce9ce14610097578063e2b95c92146100b7575b600080fd5b61006461005f36600461022c565b6100da565b6040519081526020015b60405180910390f35b61006461008536600461024e565b60016020526000908152604090205481565b6100646100a536600461024e565b60006020819052908152604090205481565b6100ca6100c53660046102b0565b61010f565b604051901515815260200161006e565b60008281526020819052604081205480831115610103576100fb8184610340565b915050610109565b60009150505b92915050565b60008061011e8587018761024e565b60008881526001602052604090205490915061013c90610e10610353565b42111561016057600087815260208181526040808320839055600190915290204290555b60008781526020819052604090205481116101b75760405162461bcd60e51b815260206004820152601360248201527214985d19481b1a5b5a5d08195e18d959591959606a1b604482015260640160405180910390fd5b60008781526020819052604081208054916101d183610366565b90915550506000878152602081815260409182902054825190815290810183905288917fa44bb783c5fbc91e685badc3344353916d1f7d50861e807fdd764b8718809489910160405180910390a25060019695505050505050565b6000806040838503121561023f57600080fd5b50508035926020909101359150565b60006020828403121561026057600080fd5b5035919050565b60008083601f84011261027957600080fd5b50813567ffffffffffffffff81111561029157600080fd5b6020830191508360208285010111156102a957600080fd5b9250929050565b6000806000806000606086880312156102c857600080fd5b85359450602086013567ffffffffffffffff808211156102e757600080fd5b6102f389838a01610267565b9096509450604088013591508082111561030c57600080fd5b5061031988828901610267565b969995985093965092949392505050565b634e487b7160e01b600052601160045260246000fd5b818103818111156101095761010961032a565b808201808211156101095761010961032a565b6000600182016103785761037861032a565b506001019056fea26469706673582212200ecb48e4c43ad372ca9bf846150ac2bec8dc0f2cacfbb08813764b1001f719ab64736f6c63430008180033",
  "linkReferences": {},
  "deployedLinkReferences": {}
}