{
  "_format": "hh-sol-artifact-1",
  "contractName": "TimeBoundEnforcer",
  "sourceName": "contracts/CaveatEnforcers.sol",
  "abi": [
    {
      "anonymous": false,
      "inputs": [
        {
          "indexed": true,
          "internalType": "bytes32",
          "name": "delegationId",
          "type": "bytes32"
        },
        {
          "indexed": false,
          "internalType": "uint256",
          "name": "startTime",
          "type": "uint256"
        },
        {
          "indexed": false,
          "internalType": "uint256",
          "name": "endTime",
          "type": "uint256"
        }
      ],
      "name": "TimeBoundEnforced",
      "type": "event"
    },
    {
      "inputs": [
        {
          "internalType": "bytes32",
          "name": "delegationId",
          "type": "bytes32"
        },
        {
          "internalType": "bytes",
          "name": "terms",
          "type": "bytes"
        },
        {
          "internalType": "bytes",
          "name": "callData",
          "type": "bytes"
        }
      ],
      "name": "enforceCaveat",
      "outputs": [
        {
          "internalType": "bool",
          "name": "",
          "type": "bool"
        }
      ],
      "stateMutability": "nonpayable",
      "type": "function"
    },
    {
      "inputs": [
        {
          "internalType": "uint256",
          "name": "startTime",
          "type": "uint256"
        },
        {
          "internalType": "uint256",
          "name": "endTime",
          "type": "uint256"
        }
      ],
      "name": "isTimeValid",
      "outputs": [
        {
          "internalType": "bool",
          "name": "",
          "type": "bool"
        }
      ],
      "stateMutability": "view",
      "type": "function"
    }
  ],
  "bytecode": "0x608060405234801561001057600080fd5b5061025c806100206000396000f3fe608060405234801561001057600080fd5b50600436106100365760003560e01c806320c83bdf1461003b578063e2b95c9214610062575b600080fd5b61004e610049366004610141565b610075565b604051901515815260200160405180910390f35b61004e6100703660046101ac565b61008e565b60008242101580156100875750814211155b9392505050565b6000808061009e86880188610141565b915091508142101580156100b25750804211155b6100f85760405162461bcd60e51b81526020600482015260136024820152724f7574736964652074696d652077696e646f7760681b604482015260640160405180910390fd5b604080518381526020810183905289917f0a693ad58d5ca64a98f194527f3ce432034611ef7d35c5a5306f5e810dff1a88910160405180910390a2506001979650505050505050565b6000806040838503121561015457600080fd5b50508035926020909101359150565b60008083601f84011261017557600080fd5b50813567ffffffffffffffff81111561018d57600080fd5b6020830191508360208285010111156101a557600080fd5b9250929050565b6000806000806000606086880312156101c457600080fd5b85359450602086013567ffffffffffffffff808211156101e357600080fd5b6101ef89838a01610163565b9096509450604088013591508082111561020857600080fd5b5061021588828901610163565b96999598509396509294939250505056fea2646970667358221220e092295a17e382e1941303f2d7e9bb1abe51bc748f9fbfee6bc6a8596f0b9e1a64736f6c63430008180033",
  "linkReferences": {},
  "deployedLinkReferences": {}
}